{"contracts/Campaign.sol":{"CampaignFactory":{"abi":[{"anonymous":false,"inputs":[{"indexed":false,"internalType":"string","name":"title","type":"string"},{"indexed":false,"internalType":"uint256","name":"requiredAmount","type":"uint256"},{"indexed":true,"internalType":"address","name":"owner","type":"address"},{"indexed":false,"internalType":"address","name":"campaignAddress","type":"address"},{"indexed":false,"internalType":"string","name":"campaignImage","type":"string"},{"indexed":true,"internalType":"uint256","name":"timestamp","type":"uint256"},{"indexed":true,"internalType":"string","name":"category","type":"string"}],"name":"campaignCreated","type":"event"},{"inputs":[{"internalType":"string","name":"campaignTitle","type":"string"},{"internalType":"uint256","name":"campaignRequiredAmount","type":"uint256"},{"internalType":"string","name":"campaignImage","type":"string"},{"internalType":"string","name":"category","type":"string"},{"internalType":"string","name":"campaignStory","type":"string"}],"name":"createCampaign","outputs":[],"stateMutability":"nonpayable","type":"function"},{"inputs":[{"internalType":"uint256","name":"","type":"uint256"}],"name":"deployedCampaigns","outputs":[{"internalType":"address","name":"","type":"address"}],"stateMutability":"view","type":"function"}],"evm":{"bytecode":{"linkReferences":{},"object":"608060405234801561001057600080fd5b506117b5806100206000396000f3fe60806040523480156200001157600080fd5b50600436106200003a5760003560e01c8063339d50a5146200003f578063c658857d1462000075575b600080fd5b6200005d60048036038101906200005791906200036e565b62000095565b6040516200006c9190620003e5565b60405180910390f35b6200009360048036038101906200008d919062000564565b620000d5565b005b60008181548110620000a657600080fd5b906000526020600020016000915054906101000a900473ffffffffffffffffffffffffffffffffffffffff1681565b60008551116200011c576040517f08c379a00000000000000000000000000000000000000000000000000000000081526004016200011390620006c9565b60405180910390fd5b6000841162000162576040517f08c379a000000000000000000000000000000000000000000000000000000000815260040162000159906200073b565b60405180910390fd5b6000835111620001a9576040517f08c379a0000000000000000000000000000000000000000000000000000000008152600401620001a090620007ad565b60405180910390fd5b6000815111620001f0576040517f08c379a0000000000000000000000000000000000000000000000000000000008152600401620001e7906200081f565b60405180910390fd5b6000858585843387604051620002069062000311565b6200021796959493929190620008d4565b604051809103906000f08015801562000234573d6000803e3d6000fd5b5090506000819080600181540180825580915050600190039060005260206000200160009091909190916101000a81548173ffffffffffffffffffffffffffffffffffffffff021916908373ffffffffffffffffffffffffffffffffffffffff16021790555082604051620002aa91906200099f565b6040518091039020423373ffffffffffffffffffffffffffffffffffffffff167ff932d905365211c7f19fda44bcb55b1adbe63365f7cdae1c35ddcb3e38ed1d468989868a604051620003019493929190620009b8565b60405180910390a4505050505050565b610d6c8062000a1483390190565b6000604051905090565b600080fd5b600080fd5b6000819050919050565b620003488162000333565b81146200035457600080fd5b50565b60008135905062000368816200033d565b92915050565b60006020828403121562000387576200038662000329565b5b6000620003978482850162000357565b91505092915050565b600073ffffffffffffffffffffffffffffffffffffffff82169050919050565b6000620003cd82620003a0565b9050919050565b620003df81620003c0565b82525050565b6000602082019050620003fc6000830184620003d4565b92915050565b600080fd5b600080fd5b6000601f19601f8301169050919050565b7f4e487b7100000000000000000000000000000000000000000000000000000000600052604160045260246000fd5b62000457826200040c565b810181811067ffffffffffffffff821117156200047957620004786200041d565b5b80604052505050565b60006200048e6200031f565b90506200049c82826200044c565b919050565b600067ffffffffffffffff821115620004bf57620004be6200041d565b5b620004ca826200040c565b9050602081019050919050565b82818337600083830152505050565b6000620004fd620004f784620004a1565b62000482565b9050828152602081018484840111156200051c576200051b62000407565b5b62000529848285620004d7565b509392505050565b600082601f83011262000549576200054862000402565b5b81356200055b848260208601620004e6565b91505092915050565b600080600080600060a0868803121562000583576200058262000329565b5b600086013567ffffffffffffffff811115620005a457620005a36200032e565b5b620005b28882890162000531565b9550506020620005c58882890162000357565b945050604086013567ffffffffffffffff811115620005e957620005e86200032e565b5b620005f78882890162000531565b935050606086013567ffffffffffffffff8111156200061b576200061a6200032e565b5b620006298882890162000531565b925050608086013567ffffffffffffffff8111156200064d576200064c6200032e565b5b6200065b8882890162000531565b9150509295509295909350565b600082825260208201905092915050565b7f5469746c6520656d707479000000000000000000000000000000000000000000600082015250565b6000620006b1600b8362000668565b9150620006be8262000679565b602082019050919050565b60006020820190508181036000830152620006e481620006a2565b9050919050565b7f416d6f756e74207a65726f000000000000000000000000000000000000000000600082015250565b600062000723600b8362000668565b91506200073082620006eb565b602082019050919050565b60006020820190508181036000830152620007568162000714565b9050919050565b7f496d61676520656d707479000000000000000000000000000000000000000000600082015250565b600062000795600b8362000668565b9150620007a2826200075d565b602082019050919050565b60006020820190508181036000830152620007c88162000786565b9050919050565b7f53746f727920656d707479000000000000000000000000000000000000000000600082015250565b600062000807600b8362000668565b91506200081482620007cf565b602082019050919050565b600060208201905081810360008301526200083a81620007f8565b9050919050565b600081519050919050565b60005b838110156200086c5780820151818401526020810190506200084f565b838111156200087c576000848401525b50505050565b60006200088f8262000841565b6200089b818562000668565b9350620008ad8185602086016200084c565b620008b8816200040c565b840191505092915050565b620008ce8162000333565b82525050565b600060c0820190508181036000830152620008f0818962000882565b9050620009016020830188620008c3565b818103604083015262000915818762000882565b905081810360608301526200092b818662000882565b90506200093c6080830185620003d4565b81810360a083015262000950818462000882565b9050979650505050505050565b600081905092915050565b6000620009758262000841565b6200098181856200095d565b9350620009938185602086016200084c565b80840191505092915050565b6000620009ad828462000968565b915081905092915050565b60006080820190508181036000830152620009d4818762000882565b9050620009e56020830186620008c3565b620009f46040830185620003d4565b818103606083015262000a08818462000882565b90509594505050505056fe60806040523480156200001157600080fd5b5060405162000d6c38038062000d6c8339818101604052810190620000379190620003dc565b85600090805190602001906200004f929190620000ef565b508460018190555083600290805190602001906200006f929190620000ef565b50826003908051906020019062000088929190620000ef565b5081600460006101000a81548173ffffffffffffffffffffffffffffffffffffffff021916908373ffffffffffffffffffffffffffffffffffffffff1602179055508060069080519060200190620000e2929190620000ef565b5050505050505062000559565b828054620000fd9062000523565b90600052602060002090601f0160209004810192826200012157600085556200016d565b82601f106200013c57805160ff19168380011785556200016d565b828001600101855582156200016d579182015b828111156200016c5782518255916020019190600101906200014f565b5b5090506200017c919062000180565b5090565b5b808211156200019b57600081600090555060010162000181565b5090565b6000604051905090565b600080fd5b600080fd5b600080fd5b600080fd5b6000601f19601f8301169050919050565b7f4e487b7100000000000000000000000000000000000000000000000000000000600052604160045260246000fd5b6200020882620001bd565b810181811067ffffffffffffffff821117156200022a5762000229620001ce565b5b80604052505050565b60006200023f6200019f565b90506200024d8282620001fd565b919050565b600067ffffffffffffffff82111562000270576200026f620001ce565b5b6200027b82620001bd565b9050602081019050919050565b60005b83811015620002a85780820151818401526020810190506200028b565b83811115620002b8576000848401525b50505050565b6000620002d5620002cf8462000252565b62000233565b905082815260208101848484011115620002f457620002f3620001b8565b5b6200030184828562000288565b509392505050565b600082601f830112620003215762000320620001b3565b5b815162000333848260208601620002be565b91505092915050565b6000819050919050565b62000351816200033c565b81146200035d57600080fd5b50565b600081519050620003718162000346565b92915050565b600073ffffffffffffffffffffffffffffffffffffffff82169050919050565b6000620003a48262000377565b9050919050565b620003b68162000397565b8114620003c257600080fd5b50565b600081519050620003d681620003ab565b92915050565b60008060008060008060c08789031215620003fc57620003fb620001a9565b5b600087015167ffffffffffffffff8111156200041d576200041c620001ae565b5b6200042b89828a0162000309565b96505060206200043e89828a0162000360565b955050604087015167ffffffffffffffff811115620004625762000461620001ae565b5b6200047089828a0162000309565b945050606087015167ffffffffffffffff811115620004945762000493620001ae565b5b620004a289828a0162000309565b9350506080620004b589828a01620003c5565b92505060a087015167ffffffffffffffff811115620004d957620004d8620001ae565b5b620004e789828a0162000309565b9150509295509295509295565b7f4e487b7100000000000000000000000000000000000000000000000000000000600052602260045260246000fd5b600060028204905060018216806200053c57607f821691505b60208210811415620005535762000552620004f4565b5b50919050565b61080380620005696000396000f3fe60806040526004361061007b5760003560e01c80639632e7201161004e5780639632e7201461012c578063ed88c68e14610157578063ef430aa614610161578063f3ccaac01461018c5761007b565b806346c922d11461008057806348b9ef40146100ab5780634a79d50c146100d65780638da5cb5b14610101575b600080fd5b34801561008c57600080fd5b506100956101b7565b6040516100a291906105c9565b60405180910390f35b3480156100b757600080fd5b506100c0610245565b6040516100cd9190610604565b60405180910390f35b3480156100e257600080fd5b506100eb61024b565b6040516100f891906105c9565b60405180910390f35b34801561010d57600080fd5b506101166102d9565b6040516101239190610660565b60405180910390f35b34801561013857600080fd5b506101416102ff565b60405161014e9190610604565b60405180910390f35b61015f610305565b005b34801561016d57600080fd5b50610176610414565b60405161018391906105c9565b60405180910390f35b34801561019857600080fd5b506101a16104a2565b6040516101ae91906105c9565b60405180910390f35b600380546101c4906106aa565b80601f01602080910402602001604051908101604052809291908181526020018280546101f0906106aa565b801561023d5780601f106102125761010080835404028352916020019161023d565b820191906000526020600020905b81548152906001019060200180831161022057829003601f168201915b505050505081565b60015481565b60008054610258906106aa565b80601f0160208091040260200160405190810160405280929190818152602001828054610284906106aa565b80156102d15780601f106102a6576101008083540402835291602001916102d1565b820191906000526020600020905b8154815290600101906020018083116102b457829003601f168201915b505050505081565b600460009054906101000a900473ffffffffffffffffffffffffffffffffffffffff1681565b60055481565b6005546001541161034b576040517f08c379a000000000000000000000000000000000000000000000000000000000815260040161034290610728565b60405180910390fd5b600460009054906101000a900473ffffffffffffffffffffffffffffffffffffffff1673ffffffffffffffffffffffffffffffffffffffff166108fc349081150290604051600060405180830381858888f193505050501580156103b3573d6000803e3d6000fd5b5034600560008282546103c69190610777565b9250508190555042343373ffffffffffffffffffffffffffffffffffffffff167fe6add99d06d9ad7fc456e746aa162eed6211c5002ef2dacdd67b8d2016822fba60405160405180910390a4565b60068054610421906106aa565b80601f016020809104026020016040519081016040528092919081815260200182805461044d906106aa565b801561049a5780601f1061046f5761010080835404028352916020019161049a565b820191906000526020600020905b81548152906001019060200180831161047d57829003601f168201915b505050505081565b600280546104af906106aa565b80601f01602080910402602001604051908101604052809291908181526020018280546104db906106aa565b80156105285780601f106104fd57610100808354040283529160200191610528565b820191906000526020600020905b81548152906001019060200180831161050b57829003601f168201915b505050505081565b600081519050919050565b600082825260208201905092915050565b60005b8381101561056a57808201518184015260208101905061054f565b83811115610579576000848401525b50505050565b6000601f19601f8301169050919050565b600061059b82610530565b6105a5818561053b565b93506105b581856020860161054c565b6105be8161057f565b840191505092915050565b600060208201905081810360008301526105e38184610590565b905092915050565b6000819050919050565b6105fe816105eb565b82525050565b600060208201905061061960008301846105f5565b92915050565b600073ffffffffffffffffffffffffffffffffffffffff82169050919050565b600061064a8261061f565b9050919050565b61065a8161063f565b82525050565b60006020820190506106756000830184610651565b92915050565b7f4e487b7100000000000000000000000000000000000000000000000000000000600052602260045260246000fd5b600060028204905060018216806106c257607f821691505b602082108114156106d6576106d561067b565b5b50919050565b7f526571756972656420416d6f756e742046756c66696c6c656400000000000000600082015250565b600061071260198361053b565b915061071d826106dc565b602082019050919050565b6000602082019050818103600083015261074181610705565b9050919050565b7f4e487b7100000000000000000000000000000000000000000000000000000000600052601160045260246000fd5b6000610782826105eb565b915061078d836105eb565b9250827fffffffffffffffffffffffffffffffffffffffffffffffffffffffffffffffff038211156107c2576107c1610748565b5b82820190509291505056fea26469706673582212205556d3f919245884461a718908f3e5aa708851e2154ad5e0eeff7c3cf4cb9d0e64736f6c634300080a0033a2646970667358221220625c21110e75461ee9fac14ad905e84183b800bcd80ecad52d9fa0e65f2af90a64736f6c634300080a0033","opcodes":"PUSH1 0x80 PUSH1 0x40 MSTORE CALLVALUE DUP1 ISZERO PUSH2 0x10 JUMPI PUSH1 0x0 DUP1 REVERT JUMPDEST POP PUSH2 0x17B5 DUP1 PUSH2 0x20 PUSH1 0x0 CODECOPY PUSH1 0x0 RETURN INVALID PUSH1 0x80 PUSH1 0x40 MSTORE CALLVALUE DUP1 ISZERO PUSH3 0x11 JUMPI PUSH1 0x0 DUP1 REVERT JUMPDEST POP PUSH1 0x4 CALLDATASIZE LT PUSH3 0x3A JUMPI PUSH1 0x0 CALLDATALOAD PUSH1 0xE0 SHR DUP1 PUSH4 0x339D50A5 EQ PUSH3 0x3F JUMPI DUP1 PUSH4 0xC658857D EQ PUSH3 0x75 JUMPI JUMPDEST PUSH1 0x0 DUP1 REVERT JUMPDEST PUSH3 0x5D PUSH1 0x4 DUP1 CALLDATASIZE SUB DUP2 ADD SWAP1 PUSH3 0x57 SWAP2 SWAP1 PUSH3 0x36E JUMP JUMPDEST PUSH3 0x95 JUMP JUMPDEST PUSH1 0x40 MLOAD PUSH3 0x6C SWAP2 SWAP1 PUSH3 0x3E5 JUMP JUMPDEST PUSH1 0x40 MLOAD DUP1 SWAP2 SUB SWAP1 RETURN JUMPDEST PUSH3 0x93 PUSH1 0x4 DUP1 CALLDATASIZE SUB DUP2 ADD SWAP1 PUSH3 0x8D SWAP2 SWAP1 PUSH3 0x564 JUMP JUMPDEST PUSH3 0xD5 JUMP JUMPDEST STOP JUMPDEST PUSH1 0x0 DUP2 DUP2 SLOAD DUP2 LT PUSH3 0xA6 JUMPI PUSH1 0x0 DUP1 REVERT JUMPDEST SWAP1 PUSH1 0x0 MSTORE PUSH1 0x20 PUSH1 0x0 KECCAK256 ADD PUSH1 0x0 SWAP2 POP SLOAD SWAP1 PUSH2 0x100 EXP SWAP1 DIV PUSH20 0xFFFFFFFFFFFFFFFFFFFFFFFFFFFFFFFFFFFFFFFF AND DUP2 JUMP JUMPDEST PUSH1 0x0 DUP6 MLOAD GT PUSH3 0x11C JUMPI PUSH1 0x40 MLOAD PUSH32 0x8C379A000000000000000000000000000000000000000000000000000000000 DUP2 MSTORE PUSH1 0x4 ADD PUSH3 0x113 SWAP1 PUSH3 0x6C9 JUMP JUMPDEST PUSH1 0x40 MLOAD DUP1 SWAP2 SUB SWAP1 REVERT JUMPDEST PUSH1 0x0 DUP5 GT PUSH3 0x162 JUMPI PUSH1 0x40 MLOAD PUSH32 0x8C379A000000000000000000000000000000000000000000000000000000000 DUP2 MSTORE PUSH1 0x4 ADD PUSH3 0x159 SWAP1 PUSH3 0x73B JUMP JUMPDEST PUSH1 0x40 MLOAD DUP1 SWAP2 SUB SWAP1 REVERT JUMPDEST PUSH1 0x0 DUP4 MLOAD GT PUSH3 0x1A9 JUMPI PUSH1 0x40 MLOAD PUSH32 0x8C379A000000000000000000000000000000000000000000000000000000000 DUP2 MSTORE PUSH1 0x4 ADD PUSH3 0x1A0 SWAP1 PUSH3 0x7AD JUMP JUMPDEST PUSH1 0x40 MLOAD DUP1 SWAP2 SUB SWAP1 REVERT JUMPDEST PUSH1 0x0 DUP2 MLOAD GT PUSH3 0x1F0 JUMPI PUSH1 0x40 MLOAD PUSH32 0x8C379A000000000000000000000000000000000000000000000000000000000 DUP2 MSTORE PUSH1 0x4 ADD PUSH3 0x1E7 SWAP1 PUSH3 0x81F JUMP JUMPDEST PUSH1 0x40 MLOAD DUP1 SWAP2 SUB SWAP1 REVERT JUMPDEST PUSH1 0x0 DUP6 DUP6 DUP6 DUP5 CALLER DUP8 PUSH1 0x40 MLOAD PUSH3 0x206 SWAP1 PUSH3 0x311 JUMP JUMPDEST PUSH3 0x217 SWAP7 SWAP6 SWAP5 SWAP4 SWAP3 SWAP2 SWAP1 PUSH3 0x8D4 JUMP JUMPDEST PUSH1 0x40 MLOAD DUP1 SWAP2 SUB SWAP1 PUSH1 0x0 CREATE DUP1 ISZERO DUP1 ISZERO PUSH3 0x234 JUMPI RETURNDATASIZE PUSH1 0x0 DUP1 RETURNDATACOPY RETURNDATASIZE PUSH1 0x0 REVERT JUMPDEST POP SWAP1 POP PUSH1 0x0 DUP2 SWAP1 DUP1 PUSH1 0x1 DUP2 SLOAD ADD DUP1 DUP3 SSTORE DUP1 SWAP2 POP POP PUSH1 0x1 SWAP1 SUB SWAP1 PUSH1 0x0 MSTORE PUSH1 0x20 PUSH1 0x0 KECCAK256 ADD PUSH1 0x0 SWAP1 SWAP2 SWAP1 SWAP2 SWAP1 SWAP2 PUSH2 0x100 EXP DUP2 SLOAD DUP2 PUSH20 0xFFFFFFFFFFFFFFFFFFFFFFFFFFFFFFFFFFFFFFFF MUL NOT AND SWAP1 DUP4 PUSH20 0xFFFFFFFFFFFFFFFFFFFFFFFFFFFFFFFFFFFFFFFF AND MUL OR SWAP1 SSTORE POP DUP3 PUSH1 0x40 MLOAD PUSH3 0x2AA SWAP2 SWAP1 PUSH3 0x99F JUMP JUMPDEST PUSH1 0x40 MLOAD DUP1 SWAP2 SUB SWAP1 KECCAK256 TIMESTAMP CALLER PUSH20 0xFFFFFFFFFFFFFFFFFFFFFFFFFFFFFFFFFFFFFFFF AND PUSH32 0xF932D905365211C7F19FDA44BCB55B1ADBE63365F7CDAE1C35DDCB3E38ED1D46 DUP10 DUP10 DUP7 DUP11 PUSH1 0x40 MLOAD PUSH3 0x301 SWAP5 SWAP4 SWAP3 SWAP2 SWAP1 PUSH3 0x9B8 JUMP JUMPDEST PUSH1 0x40 MLOAD DUP1 SWAP2 SUB SWAP1 LOG4 POP POP POP POP POP POP JUMP JUMPDEST PUSH2 0xD6C DUP1 PUSH3 0xA14 DUP4 CODECOPY ADD SWAP1 JUMP JUMPDEST PUSH1 0x0 PUSH1 0x40 MLOAD SWAP1 POP SWAP1 JUMP JUMPDEST PUSH1 0x0 DUP1 REVERT JUMPDEST PUSH1 0x0 DUP1 REVERT JUMPDEST PUSH1 0x0 DUP2 SWAP1 POP SWAP2 SWAP1 POP JUMP JUMPDEST PUSH3 0x348 DUP2 PUSH3 0x333 JUMP JUMPDEST DUP2 EQ PUSH3 0x354 JUMPI PUSH1 0x0 DUP1 REVERT JUMPDEST POP JUMP JUMPDEST PUSH1 0x0 DUP2 CALLDATALOAD SWAP1 POP PUSH3 0x368 DUP2 PUSH3 0x33D JUMP JUMPDEST SWAP3 SWAP2 POP POP JUMP JUMPDEST PUSH1 0x0 PUSH1 0x20 DUP3 DUP5 SUB SLT ISZERO PUSH3 0x387 JUMPI PUSH3 0x386 PUSH3 0x329 JUMP JUMPDEST JUMPDEST PUSH1 0x0 PUSH3 0x397 DUP5 DUP3 DUP6 ADD PUSH3 0x357 JUMP JUMPDEST SWAP2 POP POP SWAP3 SWAP2 POP POP JUMP JUMPDEST PUSH1 0x0 PUSH20 0xFFFFFFFFFFFFFFFFFFFFFFFFFFFFFFFFFFFFFFFF DUP3 AND SWAP1 POP SWAP2 SWAP1 POP JUMP JUMPDEST PUSH1 0x0 PUSH3 0x3CD DUP3 PUSH3 0x3A0 JUMP JUMPDEST SWAP1 POP SWAP2 SWAP1 POP JUMP JUMPDEST PUSH3 0x3DF DUP2 PUSH3 0x3C0 JUMP JUMPDEST DUP3 MSTORE POP POP JUMP JUMPDEST PUSH1 0x0 PUSH1 0x20 DUP3 ADD SWAP1 POP PUSH3 0x3FC PUSH1 0x0 DUP4 ADD DUP5 PUSH3 0x3D4 JUMP JUMPDEST SWAP3 SWAP2 POP POP JUMP JUMPDEST PUSH1 0x0 DUP1 REVERT JUMPDEST PUSH1 0x0 DUP1 REVERT JUMPDEST PUSH1 0x0 PUSH1 0x1F NOT PUSH1 0x1F DUP4 ADD AND SWAP1 POP SWAP2 SWAP1 POP JUMP JUMPDEST PUSH32 0x4E487B7100000000000000000000000000000000000000000000000000000000 PUSH1 0x0 MSTORE PUSH1 0x41 PUSH1 0x4 MSTORE PUSH1 0x24 PUSH1 0x0 REVERT JUMPDEST PUSH3 0x457 DUP3 PUSH3 0x40C JUMP JUMPDEST DUP2 ADD DUP2 DUP2 LT PUSH8 0xFFFFFFFFFFFFFFFF DUP3 GT OR ISZERO PUSH3 0x479 JUMPI PUSH3 0x478 PUSH3 0x41D JUMP JUMPDEST JUMPDEST DUP1 PUSH1 0x40 MSTORE POP POP POP JUMP JUMPDEST PUSH1 0x0 PUSH3 0x48E PUSH3 0x31F JUMP JUMPDEST SWAP1 POP PUSH3 0x49C DUP3 DUP3 PUSH3 0x44C JUMP JUMPDEST SWAP2 SWAP1 POP JUMP JUMPDEST PUSH1 0x0 PUSH8 0xFFFFFFFFFFFFFFFF DUP3 GT ISZERO PUSH3 0x4BF JUMPI PUSH3 0x4BE PUSH3 0x41D JUMP JUMPDEST JUMPDEST PUSH3 0x4CA DUP3 PUSH3 0x40C JUMP JUMPDEST SWAP1 POP PUSH1 0x20 DUP2 ADD SWAP1 POP SWAP2 SWAP1 POP JUMP JUMPDEST DUP3 DUP2 DUP4 CALLDATACOPY PUSH1 0x0 DUP4 DUP4 ADD MSTORE POP POP POP JUMP JUMPDEST PUSH1 0x0 PUSH3 0x4FD PUSH3 0x4F7 DUP5 PUSH3 0x4A1 JUMP JUMPDEST PUSH3 0x482 JUMP JUMPDEST SWAP1 POP DUP3 DUP2 MSTORE PUSH1 0x20 DUP2 ADD DUP5 DUP5 DUP5 ADD GT ISZERO PUSH3 0x51C JUMPI PUSH3 0x51B PUSH3 0x407 JUMP JUMPDEST JUMPDEST PUSH3 0x529 DUP5 DUP3 DUP6 PUSH3 0x4D7 JUMP JUMPDEST POP SWAP4 SWAP3 POP POP POP JUMP JUMPDEST PUSH1 0x0 DUP3 PUSH1 0x1F DUP4 ADD SLT PUSH3 0x549 JUMPI PUSH3 0x548 PUSH3 0x402 JUMP JUMPDEST JUMPDEST DUP2 CALLDATALOAD PUSH3 0x55B DUP5 DUP3 PUSH1 0x20 DUP7 ADD PUSH3 0x4E6 JUMP JUMPDEST SWAP2 POP POP SWAP3 SWAP2 POP POP JUMP JUMPDEST PUSH1 0x0 DUP1 PUSH1 0x0 DUP1 PUSH1 0x0 PUSH1 0xA0 DUP7 DUP9 SUB SLT ISZERO PUSH3 0x583 JUMPI PUSH3 0x582 PUSH3 0x329 JUMP JUMPDEST JUMPDEST PUSH1 0x0 DUP7 ADD CALLDATALOAD PUSH8 0xFFFFFFFFFFFFFFFF DUP2 GT ISZERO PUSH3 0x5A4 JUMPI PUSH3 0x5A3 PUSH3 0x32E JUMP JUMPDEST JUMPDEST PUSH3 0x5B2 DUP9 DUP3 DUP10 ADD PUSH3 0x531 JUMP JUMPDEST SWAP6 POP POP PUSH1 0x20 PUSH3 0x5C5 DUP9 DUP3 DUP10 ADD PUSH3 0x357 JUMP JUMPDEST SWAP5 POP POP PUSH1 0x40 DUP7 ADD CALLDATALOAD PUSH8 0xFFFFFFFFFFFFFFFF DUP2 GT ISZERO PUSH3 0x5E9 JUMPI PUSH3 0x5E8 PUSH3 0x32E JUMP JUMPDEST JUMPDEST PUSH3 0x5F7 DUP9 DUP3 DUP10 ADD PUSH3 0x531 JUMP JUMPDEST SWAP4 POP POP PUSH1 0x60 DUP7 ADD CALLDATALOAD PUSH8 0xFFFFFFFFFFFFFFFF DUP2 GT ISZERO PUSH3 0x61B JUMPI PUSH3 0x61A PUSH3 0x32E JUMP JUMPDEST JUMPDEST PUSH3 0x629 DUP9 DUP3 DUP10 ADD PUSH3 0x531 JUMP JUMPDEST SWAP3 POP POP PUSH1 0x80 DUP7 ADD CALLDATALOAD PUSH8 0xFFFFFFFFFFFFFFFF DUP2 GT ISZERO PUSH3 0x64D JUMPI PUSH3 0x64C PUSH3 0x32E JUMP JUMPDEST JUMPDEST PUSH3 0x65B DUP9 DUP3 DUP10 ADD PUSH3 0x531 JUMP JUMPDEST SWAP2 POP POP SWAP3 SWAP6 POP SWAP3 SWAP6 SWAP1 SWAP4 POP JUMP JUMPDEST PUSH1 0x0 DUP3 DUP3 MSTORE PUSH1 0x20 DUP3 ADD SWAP1 POP SWAP3 SWAP2 POP POP JUMP JUMPDEST PUSH32 0x5469746C6520656D707479000000000000000000000000000000000000000000 PUSH1 0x0 DUP3 ADD MSTORE POP JUMP JUMPDEST PUSH1 0x0 PUSH3 0x6B1 PUSH1 0xB DUP4 PUSH3 0x668 JUMP JUMPDEST SWAP2 POP PUSH3 0x6BE DUP3 PUSH3 0x679 JUMP JUMPDEST PUSH1 0x20 DUP3 ADD SWAP1 POP SWAP2 SWAP1 POP JUMP JUMPDEST PUSH1 0x0 PUSH1 0x20 DUP3 ADD SWAP1 POP DUP2 DUP2 SUB PUSH1 0x0 DUP4 ADD MSTORE PUSH3 0x6E4 DUP2 PUSH3 0x6A2 JUMP JUMPDEST SWAP1 POP SWAP2 SWAP1 POP JUMP JUMPDEST PUSH32 0x416D6F756E74207A65726F000000000000000000000000000000000000000000 PUSH1 0x0 DUP3 ADD MSTORE POP JUMP JUMPDEST PUSH1 0x0 PUSH3 0x723 PUSH1 0xB DUP4 PUSH3 0x668 JUMP JUMPDEST SWAP2 POP PUSH3 0x730 DUP3 PUSH3 0x6EB JUMP JUMPDEST PUSH1 0x20 DUP3 ADD SWAP1 POP SWAP2 SWAP1 POP JUMP JUMPDEST PUSH1 0x0 PUSH1 0x20 DUP3 ADD SWAP1 POP DUP2 DUP2 SUB PUSH1 0x0 DUP4 ADD MSTORE PUSH3 0x756 DUP2 PUSH3 0x714 JUMP JUMPDEST SWAP1 POP SWAP2 SWAP1 POP JUMP JUMPDEST PUSH32 0x496D61676520656D707479000000000000000000000000000000000000000000 PUSH1 0x0 DUP3 ADD MSTORE POP JUMP JUMPDEST PUSH1 0x0 PUSH3 0x795 PUSH1 0xB DUP4 PUSH3 0x668 JUMP JUMPDEST SWAP2 POP PUSH3 0x7A2 DUP3 PUSH3 0x75D JUMP JUMPDEST PUSH1 0x20 DUP3 ADD SWAP1 POP SWAP2 SWAP1 POP JUMP JUMPDEST PUSH1 0x0 PUSH1 0x20 DUP3 ADD SWAP1 POP DUP2 DUP2 SUB PUSH1 0x0 DUP4 ADD MSTORE PUSH3 0x7C8 DUP2 PUSH3 0x786 JUMP JUMPDEST SWAP1 POP SWAP2 SWAP1 POP JUMP JUMPDEST PUSH32 0x53746F727920656D707479000000000000000000000000000000000000000000 PUSH1 0x0 DUP3 ADD MSTORE POP JUMP JUMPDEST PUSH1 0x0 PUSH3 0x807 PUSH1 0xB DUP4 PUSH3 0x668 JUMP JUMPDEST SWAP2 POP PUSH3 0x814 DUP3 PUSH3 0x7CF JUMP JUMPDEST PUSH1 0x20 DUP3 ADD SWAP1 POP SWAP2 SWAP1 POP JUMP JUMPDEST PUSH1 0x0 PUSH1 0x20 DUP3 ADD SWAP1 POP DUP2 DUP2 SUB PUSH1 0x0 DUP4 ADD MSTORE PUSH3 0x83A DUP2 PUSH3 0x7F8 JUMP JUMPDEST SWAP1 POP SWAP2 SWAP1 POP JUMP JUMPDEST PUSH1 0x0 DUP2 MLOAD SWAP1 POP SWAP2 SWAP1 POP JUMP JUMPDEST PUSH1 0x0 JUMPDEST DUP4 DUP2 LT ISZERO PUSH3 0x86C JUMPI DUP1 DUP3 ADD MLOAD DUP2 DUP5 ADD MSTORE PUSH1 0x20 DUP2 ADD SWAP1 POP PUSH3 0x84F JUMP JUMPDEST DUP4 DUP2 GT ISZERO PUSH3 0x87C JUMPI PUSH1 0x0 DUP5 DUP5 ADD MSTORE JUMPDEST POP POP POP POP JUMP JUMPDEST PUSH1 0x0 PUSH3 0x88F DUP3 PUSH3 0x841 JUMP JUMPDEST PUSH3 0x89B DUP2 DUP6 PUSH3 0x668 JUMP JUMPDEST SWAP4 POP PUSH3 0x8AD DUP2 DUP6 PUSH1 0x20 DUP7 ADD PUSH3 0x84C JUMP JUMPDEST PUSH3 0x8B8 DUP2 PUSH3 0x40C JUMP JUMPDEST DUP5 ADD SWAP2 POP POP SWAP3 SWAP2 POP POP JUMP JUMPDEST PUSH3 0x8CE DUP2 PUSH3 0x333 JUMP JUMPDEST DUP3 MSTORE POP POP JUMP JUMPDEST PUSH1 0x0 PUSH1 0xC0 DUP3 ADD SWAP1 POP DUP2 DUP2 SUB PUSH1 0x0 DUP4 ADD MSTORE PUSH3 0x8F0 DUP2 DUP10 PUSH3 0x882 JUMP JUMPDEST SWAP1 POP PUSH3 0x901 PUSH1 0x20 DUP4 ADD DUP9 PUSH3 0x8C3 JUMP JUMPDEST DUP2 DUP2 SUB PUSH1 0x40 DUP4 ADD MSTORE PUSH3 0x915 DUP2 DUP8 PUSH3 0x882 JUMP JUMPDEST SWAP1 POP DUP2 DUP2 SUB PUSH1 0x60 DUP4 ADD MSTORE PUSH3 0x92B DUP2 DUP7 PUSH3 0x882 JUMP JUMPDEST SWAP1 POP PUSH3 0x93C PUSH1 0x80 DUP4 ADD DUP6 PUSH3 0x3D4 JUMP JUMPDEST DUP2 DUP2 SUB PUSH1 0xA0 DUP4 ADD MSTORE PUSH3 0x950 DUP2 DUP5 PUSH3 0x882 JUMP JUMPDEST SWAP1 POP SWAP8 SWAP7 POP POP POP POP POP POP POP JUMP JUMPDEST PUSH1 0x0 DUP2 SWAP1 POP SWAP3 SWAP2 POP POP JUMP JUMPDEST PUSH1 0x0 PUSH3 0x975 DUP3 PUSH3 0x841 JUMP JUMPDEST PUSH3 0x981 DUP2 DUP6 PUSH3 0x95D JUMP JUMPDEST SWAP4 POP PUSH3 0x993 DUP2 DUP6 PUSH1 0x20 DUP7 ADD PUSH3 0x84C JUMP JUMPDEST DUP1 DUP5 ADD SWAP2 POP POP SWAP3 SWAP2 POP POP JUMP JUMPDEST PUSH1 0x0 PUSH3 0x9AD DUP3 DUP5 PUSH3 0x968 JUMP JUMPDEST SWAP2 POP DUP2 SWAP1 POP SWAP3 SWAP2 POP POP JUMP JUMPDEST PUSH1 0x0 PUSH1 0x80 DUP3 ADD SWAP1 POP DUP2 DUP2 SUB PUSH1 0x0 DUP4 ADD MSTORE PUSH3 0x9D4 DUP2 DUP8 PUSH3 0x882 JUMP JUMPDEST SWAP1 POP PUSH3 0x9E5 PUSH1 0x20 DUP4 ADD DUP7 PUSH3 0x8C3 JUMP JUMPDEST PUSH3 0x9F4 PUSH1 0x40 DUP4 ADD DUP6 PUSH3 0x3D4 JUMP JUMPDEST DUP2 DUP2 SUB PUSH1 0x60 DUP4 ADD MSTORE PUSH3 0xA08 DUP2 DUP5 PUSH3 0x882 JUMP JUMPDEST SWAP1 POP SWAP6 SWAP5 POP POP POP POP POP JUMP INVALID PUSH1 0x80 PUSH1 0x40 MSTORE CALLVALUE DUP1 ISZERO PUSH3 0x11 JUMPI PUSH1 0x0 DUP1 REVERT JUMPDEST POP PUSH1 0x40 MLOAD PUSH3 0xD6C CODESIZE SUB DUP1 PUSH3 0xD6C DUP4 CODECOPY DUP2 DUP2 ADD PUSH1 0x40 MSTORE DUP2 ADD SWAP1 PUSH3 0x37 SWAP2 SWAP1 PUSH3 0x3DC JUMP JUMPDEST DUP6 PUSH1 0x0 SWAP1 DUP1 MLOAD SWAP1 PUSH1 0x20 ADD SWAP1 PUSH3 0x4F SWAP3 SWAP2 SWAP1 PUSH3 0xEF JUMP JUMPDEST POP DUP5 PUSH1 0x1 DUP2 SWAP1 SSTORE POP DUP4 PUSH1 0x2 SWAP1 DUP1 MLOAD SWAP1 PUSH1 0x20 ADD SWAP1 PUSH3 0x6F SWAP3 SWAP2 SWAP1 PUSH3 0xEF JUMP JUMPDEST POP DUP3 PUSH1 0x3 SWAP1 DUP1 MLOAD SWAP1 PUSH1 0x20 ADD SWAP1 PUSH3 0x88 SWAP3 SWAP2 SWAP1 PUSH3 0xEF JUMP JUMPDEST POP DUP2 PUSH1 0x4 PUSH1 0x0 PUSH2 0x100 EXP DUP2 SLOAD DUP2 PUSH20 0xFFFFFFFFFFFFFFFFFFFFFFFFFFFFFFFFFFFFFFFF MUL NOT AND SWAP1 DUP4 PUSH20 0xFFFFFFFFFFFFFFFFFFFFFFFFFFFFFFFFFFFFFFFF AND MUL OR SWAP1 SSTORE POP DUP1 PUSH1 0x6 SWAP1 DUP1 MLOAD SWAP1 PUSH1 0x20 ADD SWAP1 PUSH3 0xE2 SWAP3 SWAP2 SWAP1 PUSH3 0xEF JUMP JUMPDEST POP POP POP POP POP POP POP PUSH3 0x559 JUMP JUMPDEST DUP3 DUP1 SLOAD PUSH3 0xFD SWAP1 PUSH3 0x523 JUMP JUMPDEST SWAP1 PUSH1 0x0 MSTORE PUSH1 0x20 PUSH1 0x0 KECCAK256 SWAP1 PUSH1 0x1F ADD PUSH1 0x20 SWAP1 DIV DUP2 ADD SWAP3 DUP3 PUSH3 0x121 JUMPI PUSH1 0x0 DUP6 SSTORE PUSH3 0x16D JUMP JUMPDEST DUP3 PUSH1 0x1F LT PUSH3 0x13C JUMPI DUP1 MLOAD PUSH1 0xFF NOT AND DUP4 DUP1 ADD OR DUP6 SSTORE PUSH3 0x16D JUMP JUMPDEST DUP3 DUP1 ADD PUSH1 0x1 ADD DUP6 SSTORE DUP3 ISZERO PUSH3 0x16D JUMPI SWAP2 DUP3 ADD JUMPDEST DUP3 DUP2 GT ISZERO PUSH3 0x16C JUMPI DUP3 MLOAD DUP3 SSTORE SWAP2 PUSH1 0x20 ADD SWAP2 SWAP1 PUSH1 0x1 ADD SWAP1 PUSH3 0x14F JUMP JUMPDEST JUMPDEST POP SWAP1 POP PUSH3 0x17C SWAP2 SWAP1 PUSH3 0x180 JUMP JUMPDEST POP SWAP1 JUMP JUMPDEST JUMPDEST DUP1 DUP3 GT ISZERO PUSH3 0x19B JUMPI PUSH1 0x0 DUP2 PUSH1 0x0 SWAP1 SSTORE POP PUSH1 0x1 ADD PUSH3 0x181 JUMP JUMPDEST POP SWAP1 JUMP JUMPDEST PUSH1 0x0 PUSH1 0x40 MLOAD SWAP1 POP SWAP1 JUMP JUMPDEST PUSH1 0x0 DUP1 REVERT JUMPDEST PUSH1 0x0 DUP1 REVERT JUMPDEST PUSH1 0x0 DUP1 REVERT JUMPDEST PUSH1 0x0 DUP1 REVERT JUMPDEST PUSH1 0x0 PUSH1 0x1F NOT PUSH1 0x1F DUP4 ADD AND SWAP1 POP SWAP2 SWAP1 POP JUMP JUMPDEST PUSH32 0x4E487B7100000000000000000000000000000000000000000000000000000000 PUSH1 0x0 MSTORE PUSH1 0x41 PUSH1 0x4 MSTORE PUSH1 0x24 PUSH1 0x0 REVERT JUMPDEST PUSH3 0x208 DUP3 PUSH3 0x1BD JUMP JUMPDEST DUP2 ADD DUP2 DUP2 LT PUSH8 0xFFFFFFFFFFFFFFFF DUP3 GT OR ISZERO PUSH3 0x22A JUMPI PUSH3 0x229 PUSH3 0x1CE JUMP JUMPDEST JUMPDEST DUP1 PUSH1 0x40 MSTORE POP POP POP JUMP JUMPDEST PUSH1 0x0 PUSH3 0x23F PUSH3 0x19F JUMP JUMPDEST SWAP1 POP PUSH3 0x24D DUP3 DUP3 PUSH3 0x1FD JUMP JUMPDEST SWAP2 SWAP1 POP JUMP JUMPDEST PUSH1 0x0 PUSH8 0xFFFFFFFFFFFFFFFF DUP3 GT ISZERO PUSH3 0x270 JUMPI PUSH3 0x26F PUSH3 0x1CE JUMP JUMPDEST JUMPDEST PUSH3 0x27B DUP3 PUSH3 0x1BD JUMP JUMPDEST SWAP1 POP PUSH1 0x20 DUP2 ADD SWAP1 POP SWAP2 SWAP1 POP JUMP JUMPDEST PUSH1 0x0 JUMPDEST DUP4 DUP2 LT ISZERO PUSH3 0x2A8 JUMPI DUP1 DUP3 ADD MLOAD DUP2 DUP5 ADD MSTORE PUSH1 0x20 DUP2 ADD SWAP1 POP PUSH3 0x28B JUMP JUMPDEST DUP4 DUP2 GT ISZERO PUSH3 0x2B8 JUMPI PUSH1 0x0 DUP5 DUP5 ADD MSTORE JUMPDEST POP POP POP POP JUMP JUMPDEST PUSH1 0x0 PUSH3 0x2D5 PUSH3 0x2CF DUP5 PUSH3 0x252 JUMP JUMPDEST PUSH3 0x233 JUMP JUMPDEST SWAP1 POP DUP3 DUP2 MSTORE PUSH1 0x20 DUP2 ADD DUP5 DUP5 DUP5 ADD GT ISZERO PUSH3 0x2F4 JUMPI PUSH3 0x2F3 PUSH3 0x1B8 JUMP JUMPDEST JUMPDEST PUSH3 0x301 DUP5 DUP3 DUP6 PUSH3 0x288 JUMP JUMPDEST POP SWAP4 SWAP3 POP POP POP JUMP JUMPDEST PUSH1 0x0 DUP3 PUSH1 0x1F DUP4 ADD SLT PUSH3 0x321 JUMPI PUSH3 0x320 PUSH3 0x1B3 JUMP JUMPDEST JUMPDEST DUP2 MLOAD PUSH3 0x333 DUP5 DUP3 PUSH1 0x20 DUP7 ADD PUSH3 0x2BE JUMP JUMPDEST SWAP2 POP POP SWAP3 SWAP2 POP POP JUMP JUMPDEST PUSH1 0x0 DUP2 SWAP1 POP SWAP2 SWAP1 POP JUMP JUMPDEST PUSH3 0x351 DUP2 PUSH3 0x33C JUMP JUMPDEST DUP2 EQ PUSH3 0x35D JUMPI PUSH1 0x0 DUP1 REVERT JUMPDEST POP JUMP JUMPDEST PUSH1 0x0 DUP2 MLOAD SWAP1 POP PUSH3 0x371 DUP2 PUSH3 0x346 JUMP JUMPDEST SWAP3 SWAP2 POP POP JUMP JUMPDEST PUSH1 0x0 PUSH20 0xFFFFFFFFFFFFFFFFFFFFFFFFFFFFFFFFFFFFFFFF DUP3 AND SWAP1 POP SWAP2 SWAP1 POP JUMP JUMPDEST PUSH1 0x0 PUSH3 0x3A4 DUP3 PUSH3 0x377 JUMP JUMPDEST SWAP1 POP SWAP2 SWAP1 POP JUMP JUMPDEST PUSH3 0x3B6 DUP2 PUSH3 0x397 JUMP JUMPDEST DUP2 EQ PUSH3 0x3C2 JUMPI PUSH1 0x0 DUP1 REVERT JUMPDEST POP JUMP JUMPDEST PUSH1 0x0 DUP2 MLOAD SWAP1 POP PUSH3 0x3D6 DUP2 PUSH3 0x3AB JUMP JUMPDEST SWAP3 SWAP2 POP POP JUMP JUMPDEST PUSH1 0x0 DUP1 PUSH1 0x0 DUP1 PUSH1 0x0 DUP1 PUSH1 0xC0 DUP8 DUP10 SUB SLT ISZERO PUSH3 0x3FC JUMPI PUSH3 0x3FB PUSH3 0x1A9 JUMP JUMPDEST JUMPDEST PUSH1 0x0 DUP8 ADD MLOAD PUSH8 0xFFFFFFFFFFFFFFFF DUP2 GT ISZERO PUSH3 0x41D JUMPI PUSH3 0x41C PUSH3 0x1AE JUMP JUMPDEST JUMPDEST PUSH3 0x42B DUP10 DUP3 DUP11 ADD PUSH3 0x309 JUMP JUMPDEST SWAP7 POP POP PUSH1 0x20 PUSH3 0x43E DUP10 DUP3 DUP11 ADD PUSH3 0x360 JUMP JUMPDEST SWAP6 POP POP PUSH1 0x40 DUP8 ADD MLOAD PUSH8 0xFFFFFFFFFFFFFFFF DUP2 GT ISZERO PUSH3 0x462 JUMPI PUSH3 0x461 PUSH3 0x1AE JUMP JUMPDEST JUMPDEST PUSH3 0x470 DUP10 DUP3 DUP11 ADD PUSH3 0x309 JUMP JUMPDEST SWAP5 POP POP PUSH1 0x60 DUP8 ADD MLOAD PUSH8 0xFFFFFFFFFFFFFFFF DUP2 GT ISZERO PUSH3 0x494 JUMPI PUSH3 0x493 PUSH3 0x1AE JUMP JUMPDEST JUMPDEST PUSH3 0x4A2 DUP10 DUP3 DUP11 ADD PUSH3 0x309 JUMP JUMPDEST SWAP4 POP POP PUSH1 0x80 PUSH3 0x4B5 DUP10 DUP3 DUP11 ADD PUSH3 0x3C5 JUMP JUMPDEST SWAP3 POP POP PUSH1 0xA0 DUP8 ADD MLOAD PUSH8 0xFFFFFFFFFFFFFFFF DUP2 GT ISZERO PUSH3 0x4D9 JUMPI PUSH3 0x4D8 PUSH3 0x1AE JUMP JUMPDEST JUMPDEST PUSH3 0x4E7 DUP10 DUP3 DUP11 ADD PUSH3 0x309 JUMP JUMPDEST SWAP2 POP POP SWAP3 SWAP6 POP SWAP3 SWAP6 POP SWAP3 SWAP6 JUMP JUMPDEST PUSH32 0x4E487B7100000000000000000000000000000000000000000000000000000000 PUSH1 0x0 MSTORE PUSH1 0x22 PUSH1 0x4 MSTORE PUSH1 0x24 PUSH1 0x0 REVERT JUMPDEST PUSH1 0x0 PUSH1 0x2 DUP3 DIV SWAP1 POP PUSH1 0x1 DUP3 AND DUP1 PUSH3 0x53C JUMPI PUSH1 0x7F DUP3 AND SWAP2 POP JUMPDEST PUSH1 0x20 DUP3 LT DUP2 EQ ISZERO PUSH3 0x553 JUMPI PUSH3 0x552 PUSH3 0x4F4 JUMP JUMPDEST JUMPDEST POP SWAP2 SWAP1 POP JUMP JUMPDEST PUSH2 0x803 DUP1 PUSH3 0x569 PUSH1 0x0 CODECOPY PUSH1 0x0 RETURN INVALID PUSH1 0x80 PUSH1 0x40 MSTORE PUSH1 0x4 CALLDATASIZE LT PUSH2 0x7B JUMPI PUSH1 0x0 CALLDATALOAD PUSH1 0xE0 SHR DUP1 PUSH4 0x9632E720 GT PUSH2 0x4E JUMPI DUP1 PUSH4 0x9632E720 EQ PUSH2 0x12C JUMPI DUP1 PUSH4 0xED88C68E EQ PUSH2 0x157 JUMPI DUP1 PUSH4 0xEF430AA6 EQ PUSH2 0x161 JUMPI DUP1 PUSH4 0xF3CCAAC0 EQ PUSH2 0x18C JUMPI PUSH2 0x7B JUMP JUMPDEST DUP1 PUSH4 0x46C922D1 EQ PUSH2 0x80 JUMPI DUP1 PUSH4 0x48B9EF40 EQ PUSH2 0xAB JUMPI DUP1 PUSH4 0x4A79D50C EQ PUSH2 0xD6 JUMPI DUP1 PUSH4 0x8DA5CB5B EQ PUSH2 0x101 JUMPI JUMPDEST PUSH1 0x0 DUP1 REVERT JUMPDEST CALLVALUE DUP1 ISZERO PUSH2 0x8C JUMPI PUSH1 0x0 DUP1 REVERT JUMPDEST POP PUSH2 0x95 PUSH2 0x1B7 JUMP JUMPDEST PUSH1 0x40 MLOAD PUSH2 0xA2 SWAP2 SWAP1 PUSH2 0x5C9 JUMP JUMPDEST PUSH1 0x40 MLOAD DUP1 SWAP2 SUB SWAP1 RETURN JUMPDEST CALLVALUE DUP1 ISZERO PUSH2 0xB7 JUMPI PUSH1 0x0 DUP1 REVERT JUMPDEST POP PUSH2 0xC0 PUSH2 0x245 JUMP JUMPDEST PUSH1 0x40 MLOAD PUSH2 0xCD SWAP2 SWAP1 PUSH2 0x604 JUMP JUMPDEST PUSH1 0x40 MLOAD DUP1 SWAP2 SUB SWAP1 RETURN JUMPDEST CALLVALUE DUP1 ISZERO PUSH2 0xE2 JUMPI PUSH1 0x0 DUP1 REVERT JUMPDEST POP PUSH2 0xEB PUSH2 0x24B JUMP JUMPDEST PUSH1 0x40 MLOAD PUSH2 0xF8 SWAP2 SWAP1 PUSH2 0x5C9 JUMP JUMPDEST PUSH1 0x40 MLOAD DUP1 SWAP2 SUB SWAP1 RETURN JUMPDEST CALLVALUE DUP1 ISZERO PUSH2 0x10D JUMPI PUSH1 0x0 DUP1 REVERT JUMPDEST POP PUSH2 0x116 PUSH2 0x2D9 JUMP JUMPDEST PUSH1 0x40 MLOAD PUSH2 0x123 SWAP2 SWAP1 PUSH2 0x660 JUMP JUMPDEST PUSH1 0x40 MLOAD DUP1 SWAP2 SUB SWAP1 RETURN JUMPDEST CALLVALUE DUP1 ISZERO PUSH2 0x138 JUMPI PUSH1 0x0 DUP1 REVERT JUMPDEST POP PUSH2 0x141 PUSH2 0x2FF JUMP JUMPDEST PUSH1 0x40 MLOAD PUSH2 0x14E SWAP2 SWAP1 PUSH2 0x604 JUMP JUMPDEST PUSH1 0x40 MLOAD DUP1 SWAP2 SUB SWAP1 RETURN JUMPDEST PUSH2 0x15F PUSH2 0x305 JUMP JUMPDEST STOP JUMPDEST CALLVALUE DUP1 ISZERO PUSH2 0x16D JUMPI PUSH1 0x0 DUP1 REVERT JUMPDEST POP PUSH2 0x176 PUSH2 0x414 JUMP JUMPDEST PUSH1 0x40 MLOAD PUSH2 0x183 SWAP2 SWAP1 PUSH2 0x5C9 JUMP JUMPDEST PUSH1 0x40 MLOAD DUP1 SWAP2 SUB SWAP1 RETURN JUMPDEST CALLVALUE DUP1 ISZERO PUSH2 0x198 JUMPI PUSH1 0x0 DUP1 REVERT JUMPDEST POP PUSH2 0x1A1 PUSH2 0x4A2 JUMP JUMPDEST PUSH1 0x40 MLOAD PUSH2 0x1AE SWAP2 SWAP1 PUSH2 0x5C9 JUMP JUMPDEST PUSH1 0x40 MLOAD DUP1 SWAP2 SUB SWAP1 RETURN JUMPDEST PUSH1 0x3 DUP1 SLOAD PUSH2 0x1C4 SWAP1 PUSH2 0x6AA JUMP JUMPDEST DUP1 PUSH1 0x1F ADD PUSH1 0x20 DUP1 SWAP2 DIV MUL PUSH1 0x20 ADD PUSH1 0x40 MLOAD SWAP1 DUP2 ADD PUSH1 0x40 MSTORE DUP1 SWAP3 SWAP2 SWAP1 DUP2 DUP2 MSTORE PUSH1 0x20 ADD DUP3 DUP1 SLOAD PUSH2 0x1F0 SWAP1 PUSH2 0x6AA JUMP JUMPDEST DUP1 ISZERO PUSH2 0x23D JUMPI DUP1 PUSH1 0x1F LT PUSH2 0x212 JUMPI PUSH2 0x100 DUP1 DUP4 SLOAD DIV MUL DUP4 MSTORE SWAP2 PUSH1 0x20 ADD SWAP2 PUSH2 0x23D JUMP JUMPDEST DUP3 ADD SWAP2 SWAP1 PUSH1 0x0 MSTORE PUSH1 0x20 PUSH1 0x0 KECCAK256 SWAP1 JUMPDEST DUP2 SLOAD DUP2 MSTORE SWAP1 PUSH1 0x1 ADD SWAP1 PUSH1 0x20 ADD DUP1 DUP4 GT PUSH2 0x220 JUMPI DUP3 SWAP1 SUB PUSH1 0x1F AND DUP3 ADD SWAP2 JUMPDEST POP POP POP POP POP DUP2 JUMP JUMPDEST PUSH1 0x1 SLOAD DUP2 JUMP JUMPDEST PUSH1 0x0 DUP1 SLOAD PUSH2 0x258 SWAP1 PUSH2 0x6AA JUMP JUMPDEST DUP1 PUSH1 0x1F ADD PUSH1 0x20 DUP1 SWAP2 DIV MUL PUSH1 0x20 ADD PUSH1 0x40 MLOAD SWAP1 DUP2 ADD PUSH1 0x40 MSTORE DUP1 SWAP3 SWAP2 SWAP1 DUP2 DUP2 MSTORE PUSH1 0x20 ADD DUP3 DUP1 SLOAD PUSH2 0x284 SWAP1 PUSH2 0x6AA JUMP JUMPDEST DUP1 ISZERO PUSH2 0x2D1 JUMPI DUP1 PUSH1 0x1F LT PUSH2 0x2A6 JUMPI PUSH2 0x100 DUP1 DUP4 SLOAD DIV MUL DUP4 MSTORE SWAP2 PUSH1 0x20 ADD SWAP2 PUSH2 0x2D1 JUMP JUMPDEST DUP3 ADD SWAP2 SWAP1 PUSH1 0x0 MSTORE PUSH1 0x20 PUSH1 0x0 KECCAK256 SWAP1 JUMPDEST DUP2 SLOAD DUP2 MSTORE SWAP1 PUSH1 0x1 ADD SWAP1 PUSH1 0x20 ADD DUP1 DUP4 GT PUSH2 0x2B4 JUMPI DUP3 SWAP1 SUB PUSH1 0x1F AND DUP3 ADD SWAP2 JUMPDEST POP POP POP POP POP DUP2 JUMP JUMPDEST PUSH1 0x4 PUSH1 0x0 SWAP1 SLOAD SWAP1 PUSH2 0x100 EXP SWAP1 DIV PUSH20 0xFFFFFFFFFFFFFFFFFFFFFFFFFFFFFFFFFFFFFFFF AND DUP2 JUMP JUMPDEST PUSH1 0x5 SLOAD DUP2 JUMP JUMPDEST PUSH1 0x5 SLOAD PUSH1 0x1 SLOAD GT PUSH2 0x34B JUMPI PUSH1 0x40 MLOAD PUSH32 0x8C379A000000000000000000000000000000000000000000000000000000000 DUP2 MSTORE PUSH1 0x4 ADD PUSH2 0x342 SWAP1 PUSH2 0x728 JUMP JUMPDEST PUSH1 0x40 MLOAD DUP1 SWAP2 SUB SWAP1 REVERT JUMPDEST PUSH1 0x4 PUSH1 0x0 SWAP1 SLOAD SWAP1 PUSH2 0x100 EXP SWAP1 DIV PUSH20 0xFFFFFFFFFFFFFFFFFFFFFFFFFFFFFFFFFFFFFFFF AND PUSH20 0xFFFFFFFFFFFFFFFFFFFFFFFFFFFFFFFFFFFFFFFF AND PUSH2 0x8FC CALLVALUE SWAP1 DUP2 ISZERO MUL SWAP1 PUSH1 0x40 MLOAD PUSH1 0x0 PUSH1 0x40 MLOAD DUP1 DUP4 SUB DUP2 DUP6 DUP9 DUP9 CALL SWAP4 POP POP POP POP ISZERO DUP1 ISZERO PUSH2 0x3B3 JUMPI RETURNDATASIZE PUSH1 0x0 DUP1 RETURNDATACOPY RETURNDATASIZE PUSH1 0x0 REVERT JUMPDEST POP CALLVALUE PUSH1 0x5 PUSH1 0x0 DUP3 DUP3 SLOAD PUSH2 0x3C6 SWAP2 SWAP1 PUSH2 0x777 JUMP JUMPDEST SWAP3 POP POP DUP2 SWAP1 SSTORE POP TIMESTAMP CALLVALUE CALLER PUSH20 0xFFFFFFFFFFFFFFFFFFFFFFFFFFFFFFFFFFFFFFFF AND PUSH32 0xE6ADD99D06D9AD7FC456E746AA162EED6211C5002EF2DACDD67B8D2016822FBA PUSH1 0x40 MLOAD PUSH1 0x40 MLOAD DUP1 SWAP2 SUB SWAP1 LOG4 JUMP JUMPDEST PUSH1 0x6 DUP1 SLOAD PUSH2 0x421 SWAP1 PUSH2 0x6AA JUMP JUMPDEST DUP1 PUSH1 0x1F ADD PUSH1 0x20 DUP1 SWAP2 DIV MUL PUSH1 0x20 ADD PUSH1 0x40 MLOAD SWAP1 DUP2 ADD PUSH1 0x40 MSTORE DUP1 SWAP3 SWAP2 SWAP1 DUP2 DUP2 MSTORE PUSH1 0x20 ADD DUP3 DUP1 SLOAD PUSH2 0x44D SWAP1 PUSH2 0x6AA JUMP JUMPDEST DUP1 ISZERO PUSH2 0x49A JUMPI DUP1 PUSH1 0x1F LT PUSH2 0x46F JUMPI PUSH2 0x100 DUP1 DUP4 SLOAD DIV MUL DUP4 MSTORE SWAP2 PUSH1 0x20 ADD SWAP2 PUSH2 0x49A JUMP JUMPDEST DUP3 ADD SWAP2 SWAP1 PUSH1 0x0 MSTORE PUSH1 0x20 PUSH1 0x0 KECCAK256 SWAP1 JUMPDEST DUP2 SLOAD DUP2 MSTORE SWAP1 PUSH1 0x1 ADD SWAP1 PUSH1 0x20 ADD DUP1 DUP4 GT PUSH2 0x47D JUMPI DUP3 SWAP1 SUB PUSH1 0x1F AND DUP3 ADD SWAP2 JUMPDEST POP POP POP POP POP DUP2 JUMP JUMPDEST PUSH1 0x2 DUP1 SLOAD PUSH2 0x4AF SWAP1 PUSH2 0x6AA JUMP JUMPDEST DUP1 PUSH1 0x1F ADD PUSH1 0x20 DUP1 SWAP2 DIV MUL PUSH1 0x20 ADD PUSH1 0x40 MLOAD SWAP1 DUP2 ADD PUSH1 0x40 MSTORE DUP1 SWAP3 SWAP2 SWAP1 DUP2 DUP2 MSTORE PUSH1 0x20 ADD DUP3 DUP1 SLOAD PUSH2 0x4DB SWAP1 PUSH2 0x6AA JUMP JUMPDEST DUP1 ISZERO PUSH2 0x528 JUMPI DUP1 PUSH1 0x1F LT PUSH2 0x4FD JUMPI PUSH2 0x100 DUP1 DUP4 SLOAD DIV MUL DUP4 MSTORE SWAP2 PUSH1 0x20 ADD SWAP2 PUSH2 0x528 JUMP JUMPDEST DUP3 ADD SWAP2 SWAP1 PUSH1 0x0 MSTORE PUSH1 0x20 PUSH1 0x0 KECCAK256 SWAP1 JUMPDEST DUP2 SLOAD DUP2 MSTORE SWAP1 PUSH1 0x1 ADD SWAP1 PUSH1 0x20 ADD DUP1 DUP4 GT PUSH2 0x50B JUMPI DUP3 SWAP1 SUB PUSH1 0x1F AND DUP3 ADD SWAP2 JUMPDEST POP POP POP POP POP DUP2 JUMP JUMPDEST PUSH1 0x0 DUP2 MLOAD SWAP1 POP SWAP2 SWAP1 POP JUMP JUMPDEST PUSH1 0x0 DUP3 DUP3 MSTORE PUSH1 0x20 DUP3 ADD SWAP1 POP SWAP3 SWAP2 POP POP JUMP JUMPDEST PUSH1 0x0 JUMPDEST DUP4 DUP2 LT ISZERO PUSH2 0x56A JUMPI DUP1 DUP3 ADD MLOAD DUP2 DUP5 ADD MSTORE PUSH1 0x20 DUP2 ADD SWAP1 POP PUSH2 0x54F JUMP JUMPDEST DUP4 DUP2 GT ISZERO PUSH2 0x579 JUMPI PUSH1 0x0 DUP5 DUP5 ADD MSTORE JUMPDEST POP POP POP POP JUMP JUMPDEST PUSH1 0x0 PUSH1 0x1F NOT PUSH1 0x1F DUP4 ADD AND SWAP1 POP SWAP2 SWAP1 POP JUMP JUMPDEST PUSH1 0x0 PUSH2 0x59B DUP3 PUSH2 0x530 JUMP JUMPDEST PUSH2 0x5A5 DUP2 DUP6 PUSH2 0x53B JUMP JUMPDEST SWAP4 POP PUSH2 0x5B5 DUP2 DUP6 PUSH1 0x20 DUP7 ADD PUSH2 0x54C JUMP JUMPDEST PUSH2 0x5BE DUP2 PUSH2 0x57F JUMP JUMPDEST DUP5 ADD SWAP2 POP POP SWAP3 SWAP2 POP POP JUMP JUMPDEST PUSH1 0x0 PUSH1 0x20 DUP3 ADD SWAP1 POP DUP2 DUP2 SUB PUSH1 0x0 DUP4 ADD MSTORE PUSH2 0x5E3 DUP2 DUP5 PUSH2 0x590 JUMP JUMPDEST SWAP1 POP SWAP3 SWAP2 POP POP JUMP JUMPDEST PUSH1 0x0 DUP2 SWAP1 POP SWAP2 SWAP1 POP JUMP JUMPDEST PUSH2 0x5FE DUP2 PUSH2 0x5EB JUMP JUMPDEST DUP3 MSTORE POP POP JUMP JUMPDEST PUSH1 0x0 PUSH1 0x20 DUP3 ADD SWAP1 POP PUSH2 0x619 PUSH1 0x0 DUP4 ADD DUP5 PUSH2 0x5F5 JUMP JUMPDEST SWAP3 SWAP2 POP POP JUMP JUMPDEST PUSH1 0x0 PUSH20 0xFFFFFFFFFFFFFFFFFFFFFFFFFFFFFFFFFFFFFFFF DUP3 AND SWAP1 POP SWAP2 SWAP1 POP JUMP JUMPDEST PUSH1 0x0 PUSH2 0x64A DUP3 PUSH2 0x61F JUMP JUMPDEST SWAP1 POP SWAP2 SWAP1 POP JUMP JUMPDEST PUSH2 0x65A DUP2 PUSH2 0x63F JUMP JUMPDEST DUP3 MSTORE POP POP JUMP JUMPDEST PUSH1 0x0 PUSH1 0x20 DUP3 ADD SWAP1 POP PUSH2 0x675 PUSH1 0x0 DUP4 ADD DUP5 PUSH2 0x651 JUMP JUMPDEST SWAP3 SWAP2 POP POP JUMP JUMPDEST PUSH32 0x4E487B7100000000000000000000000000000000000000000000000000000000 PUSH1 0x0 MSTORE PUSH1 0x22 PUSH1 0x4 MSTORE PUSH1 0x24 PUSH1 0x0 REVERT JUMPDEST PUSH1 0x0 PUSH1 0x2 DUP3 DIV SWAP1 POP PUSH1 0x1 DUP3 AND DUP1 PUSH2 0x6C2 JUMPI PUSH1 0x7F DUP3 AND SWAP2 POP JUMPDEST PUSH1 0x20 DUP3 LT DUP2 EQ ISZERO PUSH2 0x6D6 JUMPI PUSH2 0x6D5 PUSH2 0x67B JUMP JUMPDEST JUMPDEST POP SWAP2 SWAP1 POP JUMP JUMPDEST PUSH32 0x526571756972656420416D6F756E742046756C66696C6C656400000000000000 PUSH1 0x0 DUP3 ADD MSTORE POP JUMP JUMPDEST PUSH1 0x0 PUSH2 0x712 PUSH1 0x19 DUP4 PUSH2 0x53B JUMP JUMPDEST SWAP2 POP PUSH2 0x71D DUP3 PUSH2 0x6DC JUMP JUMPDEST PUSH1 0x20 DUP3 ADD SWAP1 POP SWAP2 SWAP1 POP JUMP JUMPDEST PUSH1 0x0 PUSH1 0x20 DUP3 ADD SWAP1 POP DUP2 DUP2 SUB PUSH1 0x0 DUP4 ADD MSTORE PUSH2 0x741 DUP2 PUSH2 0x705 JUMP JUMPDEST SWAP1 POP SWAP2 SWAP1 POP JUMP JUMPDEST PUSH32 0x4E487B7100000000000000000000000000000000000000000000000000000000 PUSH1 0x0 MSTORE PUSH1 0x11 PUSH1 0x4 MSTORE PUSH1 0x24 PUSH1 0x0 REVERT JUMPDEST PUSH1 0x0 PUSH2 0x782 DUP3 PUSH2 0x5EB JUMP JUMPDEST SWAP2 POP PUSH2 0x78D DUP4 PUSH2 0x5EB JUMP JUMPDEST SWAP3 POP DUP3 PUSH32 0xFFFFFFFFFFFFFFFFFFFFFFFFFFFFFFFFFFFFFFFFFFFFFFFFFFFFFFFFFFFFFFFF SUB DUP3 GT ISZERO PUSH2 0x7C2 JUMPI PUSH2 0x7C1 PUSH2 0x748 JUMP JUMPDEST JUMPDEST DUP3 DUP3 ADD SWAP1 POP SWAP3 SWAP2 POP POP JUMP INVALID LOG2 PUSH5 0x6970667358 0x22 SLT KECCAK256 SSTORE JUMP 0xD3 0xF9 NOT 0x24 PC DUP5 CHAINID BYTE PUSH18 0x8908F3E5AA708851E2154AD5E0EEFF7C3CF4 0xCB SWAP14 0xE PUSH5 0x736F6C6343 STOP ADDMOD EXP STOP CALLER LOG2 PUSH5 0x6970667358 0x22 SLT KECCAK256 PUSH3 0x5C2111 0xE PUSH22 0x461EE9FAC14AD905E84183B800BCD80ECAD52D9FA0E6 0x5F 0x2A 0xF9 EXP PUSH5 0x736F6C6343 STOP ADDMOD EXP STOP CALLER "},"methodIdentifiers":{"createCampaign(string,uint256,string,string,string)":"c658857d","deployedCampaigns(uint256)":"339d50a5"}}}}}