{
  "_format": "hh-sol-artifact-1",
  "contractName": "CampaignFactory",
  "sourceName": "contracts/CampaignFactory.sol",
  "abi": [
    {
      "anonymous": false,
      "inputs": [
        {
          "indexed": true,
          "internalType": "address",
          "name": "newCreator",
          "type": "address"
        }
      ],
      "name": "CreatorRegistered",
      "type": "event"
    },
    {
      "anonymous": false,
      "inputs": [
        {
          "indexed": false,
          "internalType": "string",
          "name": "title",
          "type": "string"
        },
        {
          "indexed": false,
          "internalType": "uint256",
          "name": "requiredAmount",
          "type": "uint256"
        },
        {
          "indexed": true,
          "internalType": "address",
          "name": "owner",
          "type": "address"
        },
        {
          "indexed": false,
          "internalType": "address",
          "name": "campaignAddress",
          "type": "address"
        },
        {
          "indexed": false,
          "internalType": "string",
          "name": "campaignImage",
          "type": "string"
        },
        {
          "indexed": true,
          "internalType": "uint256",
          "name": "timestamp",
          "type": "uint256"
        },
        {
          "indexed": true,
          "internalType": "string",
          "name": "category",
          "type": "string"
        }
      ],
      "name": "campaignCreated",
      "type": "event"
    },
    {
      "inputs": [
        {
          "internalType": "string",
          "name": "campaignTitle",
          "type": "string"
        },
        {
          "internalType": "uint256",
          "name": "campaignRequiredAmount",
          "type": "uint256"
        },
        {
          "internalType": "string",
          "name": "campaignImage",
          "type": "string"
        },
        {
          "internalType": "string",
          "name": "category",
          "type": "string"
        },
        {
          "internalType": "string",
          "name": "campaignStory",
          "type": "string"
        },
        {
          "internalType": "uint256",
          "name": "campaignDeadline",
          "type": "uint256"
        },
        {
          "internalType": "address",
          "name": "platformFeeAddress",
          "type": "address"
        }
      ],
      "name": "createCampaign",
      "outputs": [],
      "stateMutability": "nonpayable",
      "type": "function"
    },
    {
      "inputs": [
        {
          "internalType": "uint256",
          "name": "",
          "type": "uint256"
        }
      ],
      "name": "deployedCampaigns",
      "outputs": [
        {
          "internalType": "address",
          "name": "",
          "type": "address"
        }
      ],
      "stateMutability": "view",
      "type": "function"
    },
    {
      "inputs": [],
      "name": "getDeployedCampaigns",
      "outputs": [
        {
          "internalType": "address[]",
          "name": "",
          "type": "address[]"
        }
      ],
      "stateMutability": "view",
      "type": "function"
    },
    {
      "inputs": [
        {
          "internalType": "address",
          "name": "",
          "type": "address"
        }
      ],
      "name": "isCreator",
      "outputs": [
        {
          "internalType": "bool",
          "name": "",
          "type": "bool"
        }
      ],
      "stateMutability": "view",
      "type": "function"
    },
    {
      "inputs": [],
      "name": "registerAsCreator",
      "outputs": [],
      "stateMutability": "nonpayable",
      "type": "function"
    }
  ],
  "bytecode": "0x608060405234801561001057600080fd5b5061405d806100206000396000f3fe60806040523480156200001157600080fd5b50600436106200005e5760003560e01c8063339d50a514620000635780634acb9d4f14620000995780635a554e9314620000bb5780638732abd514620000db578063efd4606514620000e7575b600080fd5b6200008160048036038101906200007b919062000667565b6200011d565b604051620000909190620006de565b60405180910390f35b620000a36200015d565b604051620000b29190620007c9565b60405180910390f35b620000d96004803603810190620000d3919062000980565b620001ed565b005b620000e5620004be565b005b620001056004803603810190620000ff919062000aaf565b620005ea565b60405162000114919062000afe565b60405180910390f35b600081815481106200012e57600080fd5b906000526020600020016000915054906101000a900473ffffffffffffffffffffffffffffffffffffffff1681565b60606000805480602002602001604051908101604052809291908181526020018280548015620001e357602002820191906000526020600020905b8160009054906101000a900473ffffffffffffffffffffffffffffffffffffffff1673ffffffffffffffffffffffffffffffffffffffff168152602001906001019080831162000198575b5050505050905090565b600160003373ffffffffffffffffffffffffffffffffffffffff1673ffffffffffffffffffffffffffffffffffffffff16815260200190815260200160002060009054906101000a900460ff166200027c576040517f08c379a0000000000000000000000000000000000000000000000000000000008152600401620002739062000ba2565b60405180910390fd5b6000875111620002c3576040517f08c379a0000000000000000000000000000000000000000000000000000000008152600401620002ba9062000c14565b60405180910390fd5b6000861162000309576040517f08c379a0000000000000000000000000000000000000000000000000000000008152600401620003009062000c86565b60405180910390fd5b600085511162000350576040517f08c379a0000000000000000000000000000000000000000000000000000000008152600401620003479062000cf8565b60405180910390fd5b600083511162000397576040517f08c379a00000000000000000000000000000000000000000000000000000000081526004016200038e9062000d6a565b60405180910390fd5b60008787878633898888604051620003af906200060a565b620003c298979695949392919062000e15565b604051809103906000f080158015620003df573d6000803e3d6000fd5b5090506000819080600181540180825580915050600190039060005260206000200160009091909190916101000a81548173ffffffffffffffffffffffffffffffffffffffff021916908373ffffffffffffffffffffffffffffffffffffffff1602179055508460405162000455919062000f01565b6040518091039020423373ffffffffffffffffffffffffffffffffffffffff167ff932d905365211c7f19fda44bcb55b1adbe63365f7cdae1c35ddcb3e38ed1d468b8b868c604051620004ac949392919062000f1a565b60405180910390a45050505050505050565b600160003373ffffffffffffffffffffffffffffffffffffffff1673ffffffffffffffffffffffffffffffffffffffff16815260200190815260200160002060009054906101000a900460ff16156200054e576040517f08c379a0000000000000000000000000000000000000000000000000000000008152600401620005459062000feb565b60405180910390fd5b60018060003373ffffffffffffffffffffffffffffffffffffffff1673ffffffffffffffffffffffffffffffffffffffff16815260200190815260200160002060006101000a81548160ff0219169083151502179055503373ffffffffffffffffffffffffffffffffffffffff167f177b4e655e9aaf45f5db25b396dfba96e0152f6adcf5d9a3e7d07276431d42e760405160405180910390a2565b60016020528060005260406000206000915054906101000a900460ff1681565b61301a806200100e83390190565b6000604051905090565b600080fd5b600080fd5b6000819050919050565b62000641816200062c565b81146200064d57600080fd5b50565b600081359050620006618162000636565b92915050565b60006020828403121562000680576200067f62000622565b5b6000620006908482850162000650565b91505092915050565b600073ffffffffffffffffffffffffffffffffffffffff82169050919050565b6000620006c68262000699565b9050919050565b620006d881620006b9565b82525050565b6000602082019050620006f56000830184620006cd565b92915050565b600081519050919050565b600082825260208201905092915050565b6000819050602082019050919050565b6200073281620006b9565b82525050565b600062000746838362000727565b60208301905092915050565b6000602082019050919050565b60006200076c82620006fb565b62000778818562000706565b9350620007858362000717565b8060005b83811015620007bc578151620007a0888262000738565b9750620007ad8362000752565b92505060018101905062000789565b5085935050505092915050565b60006020820190508181036000830152620007e581846200075f565b905092915050565b600080fd5b600080fd5b6000601f19601f8301169050919050565b7f4e487b7100000000000000000000000000000000000000000000000000000000600052604160045260246000fd5b6200084282620007f7565b810181811067ffffffffffffffff8211171562000864576200086362000808565b5b80604052505050565b60006200087962000618565b905062000887828262000837565b919050565b600067ffffffffffffffff821115620008aa57620008a962000808565b5b620008b582620007f7565b9050602081019050919050565b82818337600083830152505050565b6000620008e8620008e2846200088c565b6200086d565b905082815260208101848484011115620009075762000906620007f2565b5b62000914848285620008c2565b509392505050565b600082601f830112620009345762000933620007ed565b5b813562000946848260208601620008d1565b91505092915050565b6200095a81620006b9565b81146200096657600080fd5b50565b6000813590506200097a816200094f565b92915050565b600080600080600080600060e0888a031215620009a257620009a162000622565b5b600088013567ffffffffffffffff811115620009c357620009c262000627565b5b620009d18a828b016200091c565b9750506020620009e48a828b0162000650565b965050604088013567ffffffffffffffff81111562000a085762000a0762000627565b5b62000a168a828b016200091c565b955050606088013567ffffffffffffffff81111562000a3a5762000a3962000627565b5b62000a488a828b016200091c565b945050608088013567ffffffffffffffff81111562000a6c5762000a6b62000627565b5b62000a7a8a828b016200091c565b93505060a062000a8d8a828b0162000650565b92505060c062000aa08a828b0162000969565b91505092959891949750929550565b60006020828403121562000ac85762000ac762000622565b5b600062000ad88482850162000969565b91505092915050565b60008115159050919050565b62000af88162000ae1565b82525050565b600060208201905062000b15600083018462000aed565b92915050565b600082825260208201905092915050565b7f466163746f72793a2043616c6c6572206973206e6f742061207265676973746560008201527f7265642063726561746f72000000000000000000000000000000000000000000602082015250565b600062000b8a602b8362000b1b565b915062000b978262000b2c565b604082019050919050565b6000602082019050818103600083015262000bbd8162000b7b565b9050919050565b7f5469746c6520656d707479000000000000000000000000000000000000000000600082015250565b600062000bfc600b8362000b1b565b915062000c098262000bc4565b602082019050919050565b6000602082019050818103600083015262000c2f8162000bed565b9050919050565b7f416d6f756e74207a65726f000000000000000000000000000000000000000000600082015250565b600062000c6e600b8362000b1b565b915062000c7b8262000c36565b602082019050919050565b6000602082019050818103600083015262000ca18162000c5f565b9050919050565b7f496d61676520656d707479000000000000000000000000000000000000000000600082015250565b600062000ce0600b8362000b1b565b915062000ced8262000ca8565b602082019050919050565b6000602082019050818103600083015262000d138162000cd1565b9050919050565b7f4465736372697074696f6e20656d707479000000000000000000000000000000600082015250565b600062000d5260118362000b1b565b915062000d5f8262000d1a565b602082019050919050565b6000602082019050818103600083015262000d858162000d43565b9050919050565b600081519050919050565b60005b8381101562000db757808201518184015260208101905062000d9a565b60008484015250505050565b600062000dd08262000d8c565b62000ddc818562000b1b565b935062000dee81856020860162000d97565b62000df981620007f7565b840191505092915050565b62000e0f816200062c565b82525050565b600061010082019050818103600083015262000e32818b62000dc3565b905062000e43602083018a62000e04565b818103604083015262000e57818962000dc3565b9050818103606083015262000e6d818862000dc3565b905062000e7e6080830187620006cd565b81810360a083015262000e92818662000dc3565b905062000ea360c083018562000e04565b62000eb260e0830184620006cd565b9998505050505050505050565b600081905092915050565b600062000ed78262000d8c565b62000ee3818562000ebf565b935062000ef581856020860162000d97565b80840191505092915050565b600062000f0f828462000eca565b915081905092915050565b6000608082019050818103600083015262000f36818762000dc3565b905062000f47602083018662000e04565b62000f566040830185620006cd565b818103606083015262000f6a818462000dc3565b905095945050505050565b7f466163746f72793a20416c72656164792072656769737465726564206173206160008201527f2063726561746f72000000000000000000000000000000000000000000000000602082015250565b600062000fd360288362000b1b565b915062000fe08262000f75565b604082019050919050565b60006020820190508181036000830152620010068162000fc4565b905091905056fe60c06040526000600860006101000a81548160ff0219169083151502179055506000600860016101000a81548160ff0219169083151502179055503480156200004757600080fd5b506040516200301a3803806200301a83398181016040528101906200006d9190620004cf565b428211620000b2576040517f08c379a0000000000000000000000000000000000000000000000000000000008152600401620000a9906200069b565b60405180910390fd5b624f1a0042620000c39190620006ec565b82111562000108576040517f08c379a0000000000000000000000000000000000000000000000000000000008152600401620000ff906200079d565b60405180910390fd5b600073ffffffffffffffffffffffffffffffffffffffff168173ffffffffffffffffffffffffffffffffffffffff16036200017a576040517f08c379a0000000000000000000000000000000000000000000000000000000008152600401620001719062000835565b60405180910390fd5b60008711620001c0576040517f08c379a0000000000000000000000000000000000000000000000000000000008152600401620001b790620008cd565b60405180910390fd5b8760009081620001d1919062000b30565b50866001819055508560029081620001ea919062000b30565b508460039081620001fc919062000b30565b508373ffffffffffffffffffffffffffffffffffffffff1660808173ffffffffffffffffffffffffffffffffffffffff1681525050826006908162000242919062000b30565b5060006004819055506000600581905550816007819055508073ffffffffffffffffffffffffffffffffffffffff1660a08173ffffffffffffffffffffffffffffffffffffffff1681525050505050505050505062000c17565b6000604051905090565b600080fd5b600080fd5b600080fd5b600080fd5b6000601f19601f8301169050919050565b7f4e487b7100000000000000000000000000000000000000000000000000000000600052604160045260246000fd5b6200030582620002ba565b810181811067ffffffffffffffff82111715620003275762000326620002cb565b5b80604052505050565b60006200033c6200029c565b90506200034a8282620002fa565b919050565b600067ffffffffffffffff8211156200036d576200036c620002cb565b5b6200037882620002ba565b9050602081019050919050565b60005b83811015620003a557808201518184015260208101905062000388565b60008484015250505050565b6000620003c8620003c2846200034f565b62000330565b905082815260208101848484011115620003e757620003e6620002b5565b5b620003f484828562000385565b509392505050565b600082601f830112620004145762000413620002b0565b5b815162000426848260208601620003b1565b91505092915050565b6000819050919050565b62000444816200042f565b81146200045057600080fd5b50565b600081519050620004648162000439565b92915050565b600073ffffffffffffffffffffffffffffffffffffffff82169050919050565b600062000497826200046a565b9050919050565b620004a9816200048a565b8114620004b557600080fd5b50565b600081519050620004c9816200049e565b92915050565b600080600080600080600080610100898b031215620004f357620004f2620002a6565b5b600089015167ffffffffffffffff811115620005145762000513620002ab565b5b620005228b828c01620003fc565b9850506020620005358b828c0162000453565b975050604089015167ffffffffffffffff811115620005595762000558620002ab565b5b620005678b828c01620003fc565b965050606089015167ffffffffffffffff8111156200058b576200058a620002ab565b5b620005998b828c01620003fc565b9550506080620005ac8b828c01620004b8565b94505060a089015167ffffffffffffffff811115620005d057620005cf620002ab565b5b620005de8b828c01620003fc565b93505060c0620005f18b828c0162000453565b92505060e0620006048b828c01620004b8565b9150509295985092959890939650565b600082825260208201905092915050565b7f43616d706169676e3a20446561646c696e65206d75737420626520696e20746860008201527f6520667574757265000000000000000000000000000000000000000000000000602082015250565b60006200068360288362000614565b9150620006908262000625565b604082019050919050565b60006020820190508181036000830152620006b68162000674565b9050919050565b7f4e487b7100000000000000000000000000000000000000000000000000000000600052601160045260246000fd5b6000620006f9826200042f565b915062000706836200042f565b9250828201905080821115620007215762000720620006bd565b5b92915050565b7f43616d706169676e3a20496e697469616c20646561646c696e65206d6178203660008201527f3020646179730000000000000000000000000000000000000000000000000000602082015250565b60006200078560268362000614565b9150620007928262000727565b604082019050919050565b60006020820190508181036000830152620007b88162000776565b9050919050565b7f43616d706169676e3a204665652061646472657373206d75737420626520766160008201527f6c69640000000000000000000000000000000000000000000000000000000000602082015250565b60006200081d60238362000614565b91506200082a82620007bf565b604082019050919050565b6000602082019050818103600083015262000850816200080e565b9050919050565b7f43616d706169676e3a20526571756972656420616d6f756e74206d757374206260008201527f6520706f73697469766500000000000000000000000000000000000000000000602082015250565b6000620008b5602a8362000614565b9150620008c28262000857565b604082019050919050565b60006020820190508181036000830152620008e881620008a6565b9050919050565b600081519050919050565b7f4e487b7100000000000000000000000000000000000000000000000000000000600052602260045260246000fd5b600060028204905060018216806200094257607f821691505b602082108103620009585762000957620008fa565b5b50919050565b60008190508160005260206000209050919050565b60006020601f8301049050919050565b600082821b905092915050565b600060088302620009c27fffffffffffffffffffffffffffffffffffffffffffffffffffffffffffffffff8262000983565b620009ce868362000983565b95508019841693508086168417925050509392505050565b6000819050919050565b600062000a1162000a0b62000a05846200042f565b620009e6565b6200042f565b9050919050565b6000819050919050565b62000a2d83620009f0565b62000a4562000a3c8262000a18565b84845462000990565b825550505050565b600090565b62000a5c62000a4d565b62000a6981848462000a22565b505050565b5b8181101562000a915762000a8560008262000a52565b60018101905062000a6f565b5050565b601f82111562000ae05762000aaa816200095e565b62000ab58462000973565b8101602085101562000ac5578190505b62000add62000ad48562000973565b83018262000a6e565b50505b505050565b600082821c905092915050565b600062000b056000198460080262000ae5565b1980831691505092915050565b600062000b20838362000af2565b9150826002028217905092915050565b62000b3b82620008ef565b67ffffffffffffffff81111562000b575762000b56620002cb565b5b62000b63825462000929565b62000b7082828562000a95565b600060209050601f83116001811462000ba8576000841562000b93578287015190505b62000b9f858262000b12565b86555062000c0f565b601f19841662000bb8866200095e565b60005b8281101562000be25784890151825560018201915060208501945060208101905062000bbb565b8683101562000c02578489015162000bfe601f89168262000af2565b8355505b6001600288020188555050505b505050505050565b60805160a0516123b362000c67600039600081816107ca0152818161127b015261130101526000818161060701528181610896015281816109a601528181610fa10152610fdf01526123b36000f3fe6080604052600436106101185760003560e01c8063590e1ae3116100a0578063e11e1b0c11610064578063e11e1b0c1461036e578063ed14834f14610399578063ed88c68e146103c4578063ef430aa6146103ce578063f3ccaac0146103f957610127565b8063590e1ae3146102ab5780638da5cb5b146102c25780639632e720146102ed578063a00c96d714610318578063c80ec5221461034357610127565b806329dcb0cf116100e757806329dcb0cf146101d6578063389b75331461020157806346c922d11461022a57806348b9ef40146102555780634a79d50c1461028057610127565b806309ff1d301461012c57806315548232146101575780631f6d49421461018257806324600fc3146101bf57610127565b3661012757610125610424565b005b600080fd5b34801561013857600080fd5b506101416105d5565b60405161014e91906114eb565b60405180910390f35b34801561016357600080fd5b5061016c6105e8565b604051610179919061151f565b60405180910390f35b34801561018e57600080fd5b506101a960048036038101906101a4919061159d565b6105ed565b6040516101b6919061151f565b60405180910390f35b3480156101cb57600080fd5b506101d4610605565b005b3480156101e257600080fd5b506101eb61099e565b6040516101f8919061151f565b60405180910390f35b34801561020d57600080fd5b50610228600480360381019061022391906115f6565b6109a4565b005b34801561023657600080fd5b5061023f610bbf565b60405161024c91906116b3565b60405180910390f35b34801561026157600080fd5b5061026a610c4d565b604051610277919061151f565b60405180910390f35b34801561028c57600080fd5b50610295610c53565b6040516102a291906116b3565b60405180910390f35b3480156102b757600080fd5b506102c0610ce1565b005b3480156102ce57600080fd5b506102d7610f9f565b6040516102e491906116f6565b60405180910390f35b3480156102f957600080fd5b50610302610fc3565b60405161030f919061151f565b60405180910390f35b34801561032457600080fd5b5061032d610fc9565b60405161033a91906118a1565b60405180910390f35b34801561034f57600080fd5b506103586112e6565b60405161036591906114eb565b60405180910390f35b34801561037a57600080fd5b506103836112f9565b604051610390919061151f565b60405180910390f35b3480156103a557600080fd5b506103ae6112ff565b6040516103bb91906118d2565b60405180910390f35b6103cc610424565b005b3480156103da57600080fd5b506103e3611323565b6040516103f091906116b3565b60405180910390f35b34801561040557600080fd5b5061040e6113b1565b60405161041b91906116b3565b60405180910390f35b600860019054906101000a900460ff1615610474576040517f08c379a000000000000000000000000000000000000000000000000000000000815260040161046b9061195f565b60405180910390fd5b600034116104b7576040517f08c379a00000000000000000000000000000000000000000000000000000000081526004016104ae906119cb565b60405180910390fd5b60075442106104fb576040517f08c379a00000000000000000000000000000000000000000000000000000000081526004016104f290611a37565b60405180910390fd5b34600960003373ffffffffffffffffffffffffffffffffffffffff1673ffffffffffffffffffffffffffffffffffffffff168152602001908152602001600020600082825461054a9190611a86565b9250508190555034600460008282546105639190611a86565b92505081905550346005600082825461057c9190611a86565b925050819055503373ffffffffffffffffffffffffffffffffffffffff167f106aac375bbcf013d1e52338bbf9e740009a1a3a6869f8daa1b72aa1620f5fec34426040516105cb929190611aba565b60405180910390a2565b600860009054906101000a900460ff1681565b600481565b60096020528060005260406000206000915090505481565b7f000000000000000000000000000000000000000000000000000000000000000073ffffffffffffffffffffffffffffffffffffffff163373ffffffffffffffffffffffffffffffffffffffff1614610693576040517f08c379a000000000000000000000000000000000000000000000000000000000815260040161068a90611b55565b60405180910390fd5b600860019054906101000a900460ff16156106e3576040517f08c379a00000000000000000000000000000000000000000000000000000000081526004016106da9061195f565b60405180910390fd5b600154600554101561072a576040517f08c379a000000000000000000000000000000000000000000000000000000000815260040161072190611be7565b60405180910390fd5b60075442101561076f576040517f08c379a000000000000000000000000000000000000000000000000000000000815260040161076690611c79565b60405180910390fd5b6001600860016101000a81548160ff02191690831515021790555060006005549050600060646004836107a29190611c99565b6107ac9190611d0a565b9050600081836107bc9190611d3b565b9050600060058190555060007f000000000000000000000000000000000000000000000000000000000000000073ffffffffffffffffffffffffffffffffffffffff168360405161080c90611da0565b60006040518083038185875af1925050503d8060008114610849576040519150601f19603f3d011682016040523d82523d6000602084013e61084e565b606091505b5050905080610892576040517f08c379a000000000000000000000000000000000000000000000000000000000815260040161088990611e01565b60405180910390fd5b60007f000000000000000000000000000000000000000000000000000000000000000073ffffffffffffffffffffffffffffffffffffffff16836040516108d890611da0565b60006040518083038185875af1925050503d8060008114610915576040519150601f19603f3d011682016040523d82523d6000602084013e61091a565b606091505b505090508061095e576040517f08c379a000000000000000000000000000000000000000000000000000000000815260040161095590611e6d565b60405180910390fd5b7fd66662c0ded9e58fd31d5e44944bcfd07ffc15e6927ecc1382e7941cb7bd24c4838560405161098f929190611aba565b60405180910390a15050505050565b60075481565b7f000000000000000000000000000000000000000000000000000000000000000073ffffffffffffffffffffffffffffffffffffffff163373ffffffffffffffffffffffffffffffffffffffff1614610a32576040517f08c379a0000000000000000000000000000000000000000000000000000000008152600401610a2990611b55565b60405180910390fd5b6007544210610a76576040517f08c379a0000000000000000000000000000000000000000000000000000000008152600401610a6d90611eff565b60405180910390fd5b600860009054906101000a900460ff1615610ac6576040517f08c379a0000000000000000000000000000000000000000000000000000000008152600401610abd90611f91565b60405180910390fd5b428111610b08576040517f08c379a0000000000000000000000000000000000000000000000000000000008152600401610aff90612023565b60405180910390fd5b600062093a80600754610b1b9190611a86565b905080821115610b60576040517f08c379a0000000000000000000000000000000000000000000000000000000008152600401610b57906120db565b60405180910390fd5b6001600860006101000a81548160ff021916908315150217905550816007819055507fc7f2746aefc0d137a95df385581a90d8b73240b3e6724f8ecb10b58e88f0fb8b600754604051610bb3919061151f565b60405180910390a15050565b60038054610bcc9061212a565b80601f0160208091040260200160405190810160405280929190818152602001828054610bf89061212a565b8015610c455780601f10610c1a57610100808354040283529160200191610c45565b820191906000526020600020905b815481529060010190602001808311610c2857829003601f168201915b505050505081565b60015481565b60008054610c609061212a565b80601f0160208091040260200160405190810160405280929190818152602001828054610c8c9061212a565b8015610cd95780601f10610cae57610100808354040283529160200191610cd9565b820191906000526020600020905b815481529060010190602001808311610cbc57829003601f168201915b505050505081565b600860019054906101000a900460ff1615610d31576040517f08c379a0000000000000000000000000000000000000000000000000000000008152600401610d289061195f565b60405180910390fd5b600754421015610d76576040517f08c379a0000000000000000000000000000000000000000000000000000000008152600401610d6d906121cd565b60405180910390fd5b60015460055410610dbc576040517f08c379a0000000000000000000000000000000000000000000000000000000008152600401610db39061225f565b60405180910390fd5b6000600960003373ffffffffffffffffffffffffffffffffffffffff1673ffffffffffffffffffffffffffffffffffffffff16815260200190815260200160002054905060008111610e43576040517f08c379a0000000000000000000000000000000000000000000000000000000008152600401610e3a906122f1565b60405180910390fd5b6000600960003373ffffffffffffffffffffffffffffffffffffffff1673ffffffffffffffffffffffffffffffffffffffff168152602001908152602001600020819055508060056000828254610e9a9190611d3b565b9250508190555060003373ffffffffffffffffffffffffffffffffffffffff1682604051610ec790611da0565b60006040518083038185875af1925050503d8060008114610f04576040519150601f19603f3d011682016040523d82523d6000602084013e610f09565b606091505b5050905080610f4d576040517f08c379a0000000000000000000000000000000000000000000000000000000008152600401610f449061235d565b60405180910390fd5b3373ffffffffffffffffffffffffffffffffffffffff167fd7dee2702d63ad89917b6a4da9981c90c4d24f8c2bdfd64c604ecae57d8d065183604051610f93919061151f565b60405180910390a25050565b7f000000000000000000000000000000000000000000000000000000000000000081565b60045481565b610fd161143f565b6040518061018001604052807f000000000000000000000000000000000000000000000000000000000000000073ffffffffffffffffffffffffffffffffffffffff1681526020016001548152602001600454815260200160055481526020016007548152602001600080546110469061212a565b80601f01602080910402602001604051908101604052809291908181526020018280546110729061212a565b80156110bf5780601f10611094576101008083540402835291602001916110bf565b820191906000526020600020905b8154815290600101906020018083116110a257829003601f168201915b50505050508152602001600280546110d69061212a565b80601f01602080910402602001604051908101604052809291908181526020018280546111029061212a565b801561114f5780601f106111245761010080835404028352916020019161114f565b820191906000526020600020905b81548152906001019060200180831161113257829003601f168201915b50505050508152602001600380546111669061212a565b80601f01602080910402602001604051908101604052809291908181526020018280546111929061212a565b80156111df5780601f106111b4576101008083540402835291602001916111df565b820191906000526020600020905b8154815290600101906020018083116111c257829003601f168201915b50505050508152602001600680546111f69061212a565b80601f01602080910402602001604051908101604052809291908181526020018280546112229061212a565b801561126f5780601f106112445761010080835404028352916020019161126f565b820191906000526020600020905b81548152906001019060200180831161125257829003601f168201915b505050505081526020017f000000000000000000000000000000000000000000000000000000000000000073ffffffffffffffffffffffffffffffffffffffff168152602001600860009054906101000a900460ff1615158152602001600860019054906101000a900460ff161515815250905090565b600860019054906101000a900460ff1681565b60055481565b7f000000000000000000000000000000000000000000000000000000000000000081565b600680546113309061212a565b80601f016020809104026020016040519081016040528092919081815260200182805461135c9061212a565b80156113a95780601f1061137e576101008083540402835291602001916113a9565b820191906000526020600020905b81548152906001019060200180831161138c57829003601f168201915b505050505081565b600280546113be9061212a565b80601f01602080910402602001604051908101604052809291908181526020018280546113ea9061212a565b80156114375780601f1061140c57610100808354040283529160200191611437565b820191906000526020600020905b81548152906001019060200180831161141a57829003601f168201915b505050505081565b604051806101800160405280600073ffffffffffffffffffffffffffffffffffffffff1681526020016000815260200160008152602001600081526020016000815260200160608152602001606081526020016060815260200160608152602001600073ffffffffffffffffffffffffffffffffffffffff1681526020016000151581526020016000151581525090565b60008115159050919050565b6114e5816114d0565b82525050565b600060208201905061150060008301846114dc565b92915050565b6000819050919050565b61151981611506565b82525050565b60006020820190506115346000830184611510565b92915050565b600080fd5b600073ffffffffffffffffffffffffffffffffffffffff82169050919050565b600061156a8261153f565b9050919050565b61157a8161155f565b811461158557600080fd5b50565b60008135905061159781611571565b92915050565b6000602082840312156115b3576115b261153a565b5b60006115c184828501611588565b91505092915050565b6115d381611506565b81146115de57600080fd5b50565b6000813590506115f0816115ca565b92915050565b60006020828403121561160c5761160b61153a565b5b600061161a848285016115e1565b91505092915050565b600081519050919050565b600082825260208201905092915050565b60005b8381101561165d578082015181840152602081019050611642565b60008484015250505050565b6000601f19601f8301169050919050565b600061168582611623565b61168f818561162e565b935061169f81856020860161163f565b6116a881611669565b840191505092915050565b600060208201905081810360008301526116cd818461167a565b905092915050565b60006116e08261153f565b9050919050565b6116f0816116d5565b82525050565b600060208201905061170b60008301846116e7565b92915050565b61171a8161155f565b82525050565b61172981611506565b82525050565b600082825260208201905092915050565b600061174b82611623565b611755818561172f565b935061176581856020860161163f565b61176e81611669565b840191505092915050565b611782816114d0565b82525050565b6000610180830160008301516117a16000860182611711565b5060208301516117b46020860182611720565b5060408301516117c76040860182611720565b5060608301516117da6060860182611720565b5060808301516117ed6080860182611720565b5060a083015184820360a08601526118058282611740565b91505060c083015184820360c086015261181f8282611740565b91505060e083015184820360e08601526118398282611740565b9150506101008301518482036101008601526118558282611740565b91505061012083015161186c610120860182611711565b50610140830151611881610140860182611779565b50610160830151611896610160860182611779565b508091505092915050565b600060208201905081810360008301526118bb8184611788565b905092915050565b6118cc8161155f565b82525050565b60006020820190506118e760008301846118c3565b92915050565b7f43616d706169676e3a2046756e647320616c726561647920776974686472617760008201527f6e206f7220726566756e64656400000000000000000000000000000000000000602082015250565b6000611949602d8361162e565b9150611954826118ed565b604082019050919050565b600060208201905081810360008301526119788161193c565b9050919050565b7f43616d706169676e3a204d7573742073656e6420455448000000000000000000600082015250565b60006119b560178361162e565b91506119c08261197f565b602082019050919050565b600060208201905081810360008301526119e4816119a8565b9050919050565b7f43616d706169676e3a20446561646c696e652068617320706173736564000000600082015250565b6000611a21601d8361162e565b9150611a2c826119eb565b602082019050919050565b60006020820190508181036000830152611a5081611a14565b9050919050565b7f4e487b7100000000000000000000000000000000000000000000000000000000600052601160045260246000fd5b6000611a9182611506565b9150611a9c83611506565b9250828201905080821115611ab457611ab3611a57565b5b92915050565b6000604082019050611acf6000830185611510565b611adc6020830184611510565b9392505050565b7f43616d706169676e3a204d757374206265207468652063616d706169676e206f60008201527f776e657200000000000000000000000000000000000000000000000000000000602082015250565b6000611b3f60248361162e565b9150611b4a82611ae3565b604082019050919050565b60006020820190508181036000830152611b6e81611b32565b9050919050565b7f43616d706169676e3a2046756e64696e6720676f616c206e6f74206d6574202860008201527f617661696c61626c652066756e64732900000000000000000000000000000000602082015250565b6000611bd160308361162e565b9150611bdc82611b75565b604082019050919050565b60006020820190508181036000830152611c0081611bc4565b9050919050565b7f43616d706169676e3a20446561646c696e6520686173206e6f7420706173736560008201527f6420796574000000000000000000000000000000000000000000000000000000602082015250565b6000611c6360258361162e565b9150611c6e82611c07565b604082019050919050565b60006020820190508181036000830152611c9281611c56565b9050919050565b6000611ca482611506565b9150611caf83611506565b9250828202611cbd81611506565b91508282048414831517611cd457611cd3611a57565b5b5092915050565b7f4e487b7100000000000000000000000000000000000000000000000000000000600052601260045260246000fd5b6000611d1582611506565b9150611d2083611506565b925082611d3057611d2f611cdb565b5b828204905092915050565b6000611d4682611506565b9150611d5183611506565b9250828203905081811115611d6957611d68611a57565b5b92915050565b600081905092915050565b50565b6000611d8a600083611d6f565b9150611d9582611d7a565b600082019050919050565b6000611dab82611d7d565b9150819050919050565b7f43616d706169676e3a20466565207472616e73666572206661696c6564000000600082015250565b6000611deb601d8361162e565b9150611df682611db5565b602082019050919050565b60006020820190508181036000830152611e1a81611dde565b9050919050565b7f43616d706169676e3a204f776e6572207472616e73666572206661696c656400600082015250565b6000611e57601f8361162e565b9150611e6282611e21565b602082019050919050565b60006020820190508181036000830152611e8681611e4a565b9050919050565b7f43616d706169676e3a20446561646c696e652068617320616c7265616479207060008201527f6173736564000000000000000000000000000000000000000000000000000000602082015250565b6000611ee960258361162e565b9150611ef482611e8d565b604082019050919050565b60006020820190508181036000830152611f1881611edc565b9050919050565b7f43616d706169676e3a20446561646c696e652063616e206f6e6c79206265206560008201527f7874656e646564206f6e63650000000000000000000000000000000000000000602082015250565b6000611f7b602c8361162e565b9150611f8682611f1f565b604082019050919050565b60006020820190508181036000830152611faa81611f6e565b9050919050565b7f43616d706169676e3a204e657720646561646c696e65206d757374206265206960008201527f6e20746865206675747572650000000000000000000000000000000000000000602082015250565b600061200d602c8361162e565b915061201882611fb1565b604082019050919050565b6000602082019050818103600083015261203c81612000565b9050919050565b7f43616d706169676e3a20457874656e73696f6e2063616e6e6f7420657863656560008201527f64203720646179732070617374207468652063757272656e7420646561646c6960208201527f6e65000000000000000000000000000000000000000000000000000000000000604082015250565b60006120c560428361162e565b91506120d082612043565b606082019050919050565b600060208201905081810360008301526120f4816120b8565b9050919050565b7f4e487b7100000000000000000000000000000000000000000000000000000000600052602260045260246000fd5b6000600282049050600182168061214257607f821691505b602082108103612155576121546120fb565b5b50919050565b7f43616d706169676e3a20446561646c696e6520686173206e6f7420706173736560008201527f6400000000000000000000000000000000000000000000000000000000000000602082015250565b60006121b760218361162e565b91506121c28261215b565b604082019050919050565b600060208201905081810360008301526121e6816121aa565b9050919050565b7f43616d706169676e3a2046756e64696e6720676f616c20776173206d65742c2060008201527f6e6f20726566756e64206e656564656400000000000000000000000000000000602082015250565b600061224960308361162e565b9150612254826121ed565b604082019050919050565b600060208201905081810360008301526122788161223c565b9050919050565b7f43616d706169676e3a204e6f20636f6e747269627574696f6e20666f756e642060008201527f6f7220616c726561647920726566756e64656400000000000000000000000000602082015250565b60006122db60338361162e565b91506122e68261227f565b604082019050919050565b6000602082019050818103600083015261230a816122ce565b9050919050565b7f43616d706169676e3a20526566756e64207472616e73666572206661696c6564600082015250565b600061234760208361162e565b915061235282612311565b602082019050919050565b600060208201905081810360008301526123768161233a565b905091905056fea26469706673582212202b2ef414054184a1b76e6968bf3d5ac2984cbcf367609201315e34c84e59860c64736f6c63430008110033a26469706673582212207b4915a7963480e7528dabdd3304f33d780ee33e07bb84a2a5f05e070de16a3564736f6c63430008110033",
  "linkReferences": {},
  "deployedLinkReferences": {}
}