{
  "_format": "hh-sol-artifact-1",
  "contractName": "Campaign",
  "sourceName": "contracts/Campaign.sol",
  "abi": [
    {
      "inputs": [
        {
          "internalType": "string",
          "name": "campaignTitle",
          "type": "string"
        },
        {
          "internalType": "uint256",
          "name": "campaignRequiredAmount",
          "type": "uint256"
        },
        {
          "internalType": "string",
          "name": "campaignImage",
          "type": "string"
        },
        {
          "internalType": "string",
          "name": "campaignStory",
          "type": "string"
        },
        {
          "internalType": "address",
          "name": "campaignOwner",
          "type": "address"
        },
        {
          "internalType": "string",
          "name": "campaignCategory",
          "type": "string"
        },
        {
          "internalType": "uint256",
          "name": "campaignDeadline",
          "type": "uint256"
        },
        {
          "internalType": "address",
          "name": "_platformFeeAddress",
          "type": "address"
        }
      ],
      "stateMutability": "nonpayable",
      "type": "constructor"
    },
    {
      "inputs": [],
      "name": "ReentrancyGuardReentrantCall",
      "type": "error"
    },
    {
      "anonymous": false,
      "inputs": [
        {
          "indexed": false,
          "internalType": "uint256",
          "name": "newDeadline",
          "type": "uint256"
        }
      ],
      "name": "DeadlineExtended",
      "type": "event"
    },
    {
      "anonymous": false,
      "inputs": [
        {
          "indexed": true,
          "internalType": "address",
          "name": "donor",
          "type": "address"
        },
        {
          "indexed": false,
          "internalType": "uint256",
          "name": "amount",
          "type": "uint256"
        },
        {
          "indexed": false,
          "internalType": "uint256",
          "name": "timestamp",
          "type": "uint256"
        }
      ],
      "name": "Donation",
      "type": "event"
    },
    {
      "anonymous": false,
      "inputs": [
        {
          "indexed": false,
          "internalType": "uint256",
          "name": "amountToOwner",
          "type": "uint256"
        },
        {
          "indexed": false,
          "internalType": "uint256",
          "name": "feeAmount",
          "type": "uint256"
        }
      ],
      "name": "FundsWithdrawn",
      "type": "event"
    },
    {
      "anonymous": false,
      "inputs": [
        {
          "indexed": true,
          "internalType": "address",
          "name": "contributor",
          "type": "address"
        },
        {
          "indexed": false,
          "internalType": "uint256",
          "name": "amount",
          "type": "uint256"
        }
      ],
      "name": "Refunded",
      "type": "event"
    },
    {
      "inputs": [],
      "name": "PLATFORM_FEE_PERCENTAGE",
      "outputs": [
        {
          "internalType": "uint256",
          "name": "",
          "type": "uint256"
        }
      ],
      "stateMutability": "view",
      "type": "function"
    },
    {
      "inputs": [],
      "name": "category",
      "outputs": [
        {
          "internalType": "string",
          "name": "",
          "type": "string"
        }
      ],
      "stateMutability": "view",
      "type": "function"
    },
    {
      "inputs": [
        {
          "internalType": "address",
          "name": "",
          "type": "address"
        }
      ],
      "name": "contributors",
      "outputs": [
        {
          "internalType": "uint256",
          "name": "",
          "type": "uint256"
        }
      ],
      "stateMutability": "view",
      "type": "function"
    },
    {
      "inputs": [],
      "name": "deadline",
      "outputs": [
        {
          "internalType": "uint256",
          "name": "",
          "type": "uint256"
        }
      ],
      "stateMutability": "view",
      "type": "function"
    },
    {
      "inputs": [],
      "name": "deadlineExtended",
      "outputs": [
        {
          "internalType": "bool",
          "name": "",
          "type": "bool"
        }
      ],
      "stateMutability": "view",
      "type": "function"
    },
    {
      "inputs": [],
      "name": "donate",
      "outputs": [],
      "stateMutability": "payable",
      "type": "function"
    },
    {
      "inputs": [],
      "name": "escrowBalance",
      "outputs": [
        {
          "internalType": "uint256",
          "name": "",
          "type": "uint256"
        }
      ],
      "stateMutability": "view",
      "type": "function"
    },
    {
      "inputs": [
        {
          "internalType": "uint256",
          "name": "_newDeadline",
          "type": "uint256"
        }
      ],
      "name": "extendDeadline",
      "outputs": [],
      "stateMutability": "nonpayable",
      "type": "function"
    },
    {
      "inputs": [],
      "name": "getCampaignSummary",
      "outputs": [
        {
          "components": [
            {
              "internalType": "address",
              "name": "owner",
              "type": "address"
            },
            {
              "internalType": "uint256",
              "name": "requiredAmount",
              "type": "uint256"
            },
            {
              "internalType": "uint256",
              "name": "receivedAmount",
              "type": "uint256"
            },
            {
              "internalType": "uint256",
              "name": "escrowBalance",
              "type": "uint256"
            },
            {
              "internalType": "uint256",
              "name": "deadline",
              "type": "uint256"
            },
            {
              "internalType": "string",
              "name": "title",
              "type": "string"
            },
            {
              "internalType": "string",
              "name": "imageURI",
              "type": "string"
            },
            {
              "internalType": "string",
              "name": "story",
              "type": "string"
            },
            {
              "internalType": "string",
              "name": "category",
              "type": "string"
            },
            {
              "internalType": "address",
              "name": "platformFeeAddress",
              "type": "address"
            },
            {
              "internalType": "bool",
              "name": "deadlineExtended",
              "type": "bool"
            },
            {
              "internalType": "bool",
              "name": "withdrawn",
              "type": "bool"
            }
          ],
          "internalType": "struct Campaign.CampaignDetails",
          "name": "",
          "type": "tuple"
        }
      ],
      "stateMutability": "view",
      "type": "function"
    },
    {
      "inputs": [],
      "name": "image",
      "outputs": [
        {
          "internalType": "string",
          "name": "",
          "type": "string"
        }
      ],
      "stateMutability": "view",
      "type": "function"
    },
    {
      "inputs": [],
      "name": "owner",
      "outputs": [
        {
          "internalType": "address payable",
          "name": "",
          "type": "address"
        }
      ],
      "stateMutability": "view",
      "type": "function"
    },
    {
      "inputs": [],
      "name": "platformFeeAddress",
      "outputs": [
        {
          "internalType": "address",
          "name": "",
          "type": "address"
        }
      ],
      "stateMutability": "view",
      "type": "function"
    },
    {
      "inputs": [],
      "name": "receivedAmount",
      "outputs": [
        {
          "internalType": "uint256",
          "name": "",
          "type": "uint256"
        }
      ],
      "stateMutability": "view",
      "type": "function"
    },
    {
      "inputs": [],
      "name": "refund",
      "outputs": [],
      "stateMutability": "nonpayable",
      "type": "function"
    },
    {
      "inputs": [],
      "name": "requiredAmount",
      "outputs": [
        {
          "internalType": "uint256",
          "name": "",
          "type": "uint256"
        }
      ],
      "stateMutability": "view",
      "type": "function"
    },
    {
      "inputs": [],
      "name": "story",
      "outputs": [
        {
          "internalType": "string",
          "name": "",
          "type": "string"
        }
      ],
      "stateMutability": "view",
      "type": "function"
    },
    {
      "inputs": [],
      "name": "title",
      "outputs": [
        {
          "internalType": "string",
          "name": "",
          "type": "string"
        }
      ],
      "stateMutability": "view",
      "type": "function"
    },
    {
      "inputs": [],
      "name": "withdrawFunds",
      "outputs": [],
      "stateMutability": "nonpayable",
      "type": "function"
    },
    {
      "inputs": [],
      "name": "withdrawn",
      "outputs": [
        {
          "internalType": "bool",
          "name": "",
          "type": "bool"
        }
      ],
      "stateMutability": "view",
      "type": "function"
    },
    {
      "stateMutability": "payable",
      "type": "receive"
    }
  ],
  "bytecode": "0x60c06040526000600860006101000a81548160ff0219169083151502179055506000600860016101000a81548160ff0219169083151502179055503480156200004757600080fd5b506040516200316a3803806200316a83398181016040528101906200006d91906200052d565b60016200008f62000083620002c560201b60201c565b620002f060201b60201c565b60000181905550428211620000db576040517f08c379a0000000000000000000000000000000000000000000000000000000008152600401620000d290620006f9565b60405180910390fd5b624f1a0042620000ec91906200074a565b82111562000131576040517f08c379a00000000000000000000000000000000000000000000000000000000081526004016200012890620007fb565b60405180910390fd5b600073ffffffffffffffffffffffffffffffffffffffff168173ffffffffffffffffffffffffffffffffffffffff1603620001a3576040517f08c379a00000000000000000000000000000000000000000000000000000000081526004016200019a9062000893565b60405180910390fd5b60008711620001e9576040517f08c379a0000000000000000000000000000000000000000000000000000000008152600401620001e0906200092b565b60405180910390fd5b8760009081620001fa919062000b8e565b5086600181905550856002908162000213919062000b8e565b50846003908162000225919062000b8e565b508373ffffffffffffffffffffffffffffffffffffffff1660808173ffffffffffffffffffffffffffffffffffffffff168152505082600690816200026b919062000b8e565b5060006004819055506000600581905550816007819055508073ffffffffffffffffffffffffffffffffffffffff1660a08173ffffffffffffffffffffffffffffffffffffffff1681525050505050505050505062000c75565b60007f9b779b17422d0df92223018b32b4d1fa46e071723d6817e2486d003becc55f0060001b905090565b6000819050919050565b6000604051905090565b600080fd5b600080fd5b600080fd5b600080fd5b6000601f19601f8301169050919050565b7f4e487b7100000000000000000000000000000000000000000000000000000000600052604160045260246000fd5b620003638262000318565b810181811067ffffffffffffffff8211171562000385576200038462000329565b5b80604052505050565b60006200039a620002fa565b9050620003a8828262000358565b919050565b600067ffffffffffffffff821115620003cb57620003ca62000329565b5b620003d68262000318565b9050602081019050919050565b60005b8381101562000403578082015181840152602081019050620003e6565b60008484015250505050565b6000620004266200042084620003ad565b6200038e565b90508281526020810184848401111562000445576200044462000313565b5b62000452848285620003e3565b509392505050565b600082601f8301126200047257620004716200030e565b5b8151620004848482602086016200040f565b91505092915050565b6000819050919050565b620004a2816200048d565b8114620004ae57600080fd5b50565b600081519050620004c28162000497565b92915050565b600073ffffffffffffffffffffffffffffffffffffffff82169050919050565b6000620004f582620004c8565b9050919050565b6200050781620004e8565b81146200051357600080fd5b50565b6000815190506200052781620004fc565b92915050565b600080600080600080600080610100898b03121562000551576200055062000304565b5b600089015167ffffffffffffffff81111562000572576200057162000309565b5b620005808b828c016200045a565b9850506020620005938b828c01620004b1565b975050604089015167ffffffffffffffff811115620005b757620005b662000309565b5b620005c58b828c016200045a565b965050606089015167ffffffffffffffff811115620005e957620005e862000309565b5b620005f78b828c016200045a565b95505060806200060a8b828c0162000516565b94505060a089015167ffffffffffffffff8111156200062e576200062d62000309565b5b6200063c8b828c016200045a565b93505060c06200064f8b828c01620004b1565b92505060e0620006628b828c0162000516565b9150509295985092959890939650565b600082825260208201905092915050565b7f43616d706169676e3a20446561646c696e65206d75737420626520696e20746860008201527f6520667574757265000000000000000000000000000000000000000000000000602082015250565b6000620006e160288362000672565b9150620006ee8262000683565b604082019050919050565b600060208201905081810360008301526200071481620006d2565b9050919050565b7f4e487b7100000000000000000000000000000000000000000000000000000000600052601160045260246000fd5b600062000757826200048d565b915062000764836200048d565b92508282019050808211156200077f576200077e6200071b565b5b92915050565b7f43616d706169676e3a20496e697469616c20646561646c696e65206d6178203660008201527f3020646179730000000000000000000000000000000000000000000000000000602082015250565b6000620007e360268362000672565b9150620007f08262000785565b604082019050919050565b600060208201905081810360008301526200081681620007d4565b9050919050565b7f43616d706169676e3a204665652061646472657373206d75737420626520766160008201527f6c69640000000000000000000000000000000000000000000000000000000000602082015250565b60006200087b60238362000672565b915062000888826200081d565b604082019050919050565b60006020820190508181036000830152620008ae816200086c565b9050919050565b7f43616d706169676e3a20526571756972656420616d6f756e74206d757374206260008201527f6520706f73697469766500000000000000000000000000000000000000000000602082015250565b600062000913602a8362000672565b91506200092082620008b5565b604082019050919050565b60006020820190508181036000830152620009468162000904565b9050919050565b600081519050919050565b7f4e487b7100000000000000000000000000000000000000000000000000000000600052602260045260246000fd5b60006002820490506001821680620009a057607f821691505b602082108103620009b657620009b562000958565b5b50919050565b60008190508160005260206000209050919050565b60006020601f8301049050919050565b600082821b905092915050565b60006008830262000a207fffffffffffffffffffffffffffffffffffffffffffffffffffffffffffffffff82620009e1565b62000a2c8683620009e1565b95508019841693508086168417925050509392505050565b6000819050919050565b600062000a6f62000a6962000a63846200048d565b62000a44565b6200048d565b9050919050565b6000819050919050565b62000a8b8362000a4e565b62000aa362000a9a8262000a76565b848454620009ee565b825550505050565b600090565b62000aba62000aab565b62000ac781848462000a80565b505050565b5b8181101562000aef5762000ae360008262000ab0565b60018101905062000acd565b5050565b601f82111562000b3e5762000b0881620009bc565b62000b1384620009d1565b8101602085101562000b23578190505b62000b3b62000b3285620009d1565b83018262000acc565b50505b505050565b600082821c905092915050565b600062000b636000198460080262000b43565b1980831691505092915050565b600062000b7e838362000b50565b9150826002028217905092915050565b62000b99826200094d565b67ffffffffffffffff81111562000bb55762000bb462000329565b5b62000bc1825462000987565b62000bce82828562000af3565b600060209050601f83116001811462000c06576000841562000bf1578287015190505b62000bfd858262000b70565b86555062000c6d565b601f19841662000c1686620009bc565b60005b8281101562000c405784890151825560018201915060208501945060208101905062000c19565b8683101562000c60578489015162000c5c601f89168262000b50565b8355505b6001600288020188555050505b505050505050565b60805160a0516124a562000cc5600039600081816107d20152818161129b01526113210152600081816106070152818161089e015281816109b601528181610fc10152610fff01526124a56000f3fe6080604052600436106101185760003560e01c8063590e1ae3116100a0578063e11e1b0c11610064578063e11e1b0c1461036e578063ed14834f14610399578063ed88c68e146103c4578063ef430aa6146103ce578063f3ccaac0146103f957610127565b8063590e1ae3146102ab5780638da5cb5b146102c25780639632e720146102ed578063a00c96d714610318578063c80ec5221461034357610127565b806329dcb0cf116100e757806329dcb0cf146101d6578063389b75331461020157806346c922d11461022a57806348b9ef40146102555780634a79d50c1461028057610127565b806309ff1d301461012c57806315548232146101575780631f6d49421461018257806324600fc3146101bf57610127565b3661012757610125610424565b005b600080fd5b34801561013857600080fd5b506101416105d5565b60405161014e91906115dd565b60405180910390f35b34801561016357600080fd5b5061016c6105e8565b6040516101799190611611565b60405180910390f35b34801561018e57600080fd5b506101a960048036038101906101a4919061168f565b6105ed565b6040516101b69190611611565b60405180910390f35b3480156101cb57600080fd5b506101d4610605565b005b3480156101e257600080fd5b506101eb6109ae565b6040516101f89190611611565b60405180910390f35b34801561020d57600080fd5b50610228600480360381019061022391906116e8565b6109b4565b005b34801561023657600080fd5b5061023f610bcf565b60405161024c91906117a5565b60405180910390f35b34801561026157600080fd5b5061026a610c5d565b6040516102779190611611565b60405180910390f35b34801561028c57600080fd5b50610295610c63565b6040516102a291906117a5565b60405180910390f35b3480156102b757600080fd5b506102c0610cf1565b005b3480156102ce57600080fd5b506102d7610fbf565b6040516102e491906117e8565b60405180910390f35b3480156102f957600080fd5b50610302610fe3565b60405161030f9190611611565b60405180910390f35b34801561032457600080fd5b5061032d610fe9565b60405161033a9190611993565b60405180910390f35b34801561034f57600080fd5b50610358611306565b60405161036591906115dd565b60405180910390f35b34801561037a57600080fd5b50610383611319565b6040516103909190611611565b60405180910390f35b3480156103a557600080fd5b506103ae61131f565b6040516103bb91906119c4565b60405180910390f35b6103cc610424565b005b3480156103da57600080fd5b506103e3611343565b6040516103f091906117a5565b60405180910390f35b34801561040557600080fd5b5061040e6113d1565b60405161041b91906117a5565b60405180910390f35b600860019054906101000a900460ff1615610474576040517f08c379a000000000000000000000000000000000000000000000000000000000815260040161046b90611a51565b60405180910390fd5b600034116104b7576040517f08c379a00000000000000000000000000000000000000000000000000000000081526004016104ae90611abd565b60405180910390fd5b60075442106104fb576040517f08c379a00000000000000000000000000000000000000000000000000000000081526004016104f290611b29565b60405180910390fd5b34600960003373ffffffffffffffffffffffffffffffffffffffff1673ffffffffffffffffffffffffffffffffffffffff168152602001908152602001600020600082825461054a9190611b78565b9250508190555034600460008282546105639190611b78565b92505081905550346005600082825461057c9190611b78565b925050819055503373ffffffffffffffffffffffffffffffffffffffff167f106aac375bbcf013d1e52338bbf9e740009a1a3a6869f8daa1b72aa1620f5fec34426040516105cb929190611bac565b60405180910390a2565b600860009054906101000a900460ff1681565b600481565b60096020528060005260406000206000915090505481565b7f000000000000000000000000000000000000000000000000000000000000000073ffffffffffffffffffffffffffffffffffffffff163373ffffffffffffffffffffffffffffffffffffffff1614610693576040517f08c379a000000000000000000000000000000000000000000000000000000000815260040161068a90611c47565b60405180910390fd5b600860019054906101000a900460ff16156106e3576040517f08c379a00000000000000000000000000000000000000000000000000000000081526004016106da90611a51565b60405180910390fd5b6106eb61145f565b6001546005541015610732576040517f08c379a000000000000000000000000000000000000000000000000000000000815260040161072990611cd9565b60405180910390fd5b600754421015610777576040517f08c379a000000000000000000000000000000000000000000000000000000000815260040161076e90611d6b565b60405180910390fd5b6001600860016101000a81548160ff02191690831515021790555060006005549050600060646004836107aa9190611d8b565b6107b49190611dfc565b9050600081836107c49190611e2d565b9050600060058190555060007f000000000000000000000000000000000000000000000000000000000000000073ffffffffffffffffffffffffffffffffffffffff168360405161081490611e92565b60006040518083038185875af1925050503d8060008114610851576040519150601f19603f3d011682016040523d82523d6000602084013e610856565b606091505b505090508061089a576040517f08c379a000000000000000000000000000000000000000000000000000000000815260040161089190611ef3565b60405180910390fd5b60007f000000000000000000000000000000000000000000000000000000000000000073ffffffffffffffffffffffffffffffffffffffff16836040516108e090611e92565b60006040518083038185875af1925050503d806000811461091d576040519150601f19603f3d011682016040523d82523d6000602084013e610922565b606091505b5050905080610966576040517f08c379a000000000000000000000000000000000000000000000000000000000815260040161095d90611f5f565b60405180910390fd5b7fd66662c0ded9e58fd31d5e44944bcfd07ffc15e6927ecc1382e7941cb7bd24c48385604051610997929190611bac565b60405180910390a150505050506109ac611482565b565b60075481565b7f000000000000000000000000000000000000000000000000000000000000000073ffffffffffffffffffffffffffffffffffffffff163373ffffffffffffffffffffffffffffffffffffffff1614610a42576040517f08c379a0000000000000000000000000000000000000000000000000000000008152600401610a3990611c47565b60405180910390fd5b6007544210610a86576040517f08c379a0000000000000000000000000000000000000000000000000000000008152600401610a7d90611ff1565b60405180910390fd5b600860009054906101000a900460ff1615610ad6576040517f08c379a0000000000000000000000000000000000000000000000000000000008152600401610acd90612083565b60405180910390fd5b428111610b18576040517f08c379a0000000000000000000000000000000000000000000000000000000008152600401610b0f90612115565b60405180910390fd5b600062093a80600754610b2b9190611b78565b905080821115610b70576040517f08c379a0000000000000000000000000000000000000000000000000000000008152600401610b67906121cd565b60405180910390fd5b6001600860006101000a81548160ff021916908315150217905550816007819055507fc7f2746aefc0d137a95df385581a90d8b73240b3e6724f8ecb10b58e88f0fb8b600754604051610bc39190611611565b60405180910390a15050565b60038054610bdc9061221c565b80601f0160208091040260200160405190810160405280929190818152602001828054610c089061221c565b8015610c555780601f10610c2a57610100808354040283529160200191610c55565b820191906000526020600020905b815481529060010190602001808311610c3857829003601f168201915b505050505081565b60015481565b60008054610c709061221c565b80601f0160208091040260200160405190810160405280929190818152602001828054610c9c9061221c565b8015610ce95780601f10610cbe57610100808354040283529160200191610ce9565b820191906000526020600020905b815481529060010190602001808311610ccc57829003601f168201915b505050505081565b600860019054906101000a900460ff1615610d41576040517f08c379a0000000000000000000000000000000000000000000000000000000008152600401610d3890611a51565b60405180910390fd5b610d4961145f565b600754421015610d8e576040517f08c379a0000000000000000000000000000000000000000000000000000000008152600401610d85906122bf565b60405180910390fd5b60015460055410610dd4576040517f08c379a0000000000000000000000000000000000000000000000000000000008152600401610dcb90612351565b60405180910390fd5b6000600960003373ffffffffffffffffffffffffffffffffffffffff1673ffffffffffffffffffffffffffffffffffffffff16815260200190815260200160002054905060008111610e5b576040517f08c379a0000000000000000000000000000000000000000000000000000000008152600401610e52906123e3565b60405180910390fd5b6000600960003373ffffffffffffffffffffffffffffffffffffffff1673ffffffffffffffffffffffffffffffffffffffff168152602001908152602001600020819055508060056000828254610eb29190611e2d565b9250508190555060003373ffffffffffffffffffffffffffffffffffffffff1682604051610edf90611e92565b60006040518083038185875af1925050503d8060008114610f1c576040519150601f19603f3d011682016040523d82523d6000602084013e610f21565b606091505b5050905080610f65576040517f08c379a0000000000000000000000000000000000000000000000000000000008152600401610f5c9061244f565b60405180910390fd5b3373ffffffffffffffffffffffffffffffffffffffff167fd7dee2702d63ad89917b6a4da9981c90c4d24f8c2bdfd64c604ecae57d8d065183604051610fab9190611611565b60405180910390a25050610fbd611482565b565b7f000000000000000000000000000000000000000000000000000000000000000081565b60045481565b610ff1611531565b6040518061018001604052807f000000000000000000000000000000000000000000000000000000000000000073ffffffffffffffffffffffffffffffffffffffff1681526020016001548152602001600454815260200160055481526020016007548152602001600080546110669061221c565b80601f01602080910402602001604051908101604052809291908181526020018280546110929061221c565b80156110df5780601f106110b4576101008083540402835291602001916110df565b820191906000526020600020905b8154815290600101906020018083116110c257829003601f168201915b50505050508152602001600280546110f69061221c565b80601f01602080910402602001604051908101604052809291908181526020018280546111229061221c565b801561116f5780601f106111445761010080835404028352916020019161116f565b820191906000526020600020905b81548152906001019060200180831161115257829003601f168201915b50505050508152602001600380546111869061221c565b80601f01602080910402602001604051908101604052809291908181526020018280546111b29061221c565b80156111ff5780601f106111d4576101008083540402835291602001916111ff565b820191906000526020600020905b8154815290600101906020018083116111e257829003601f168201915b50505050508152602001600680546112169061221c565b80601f01602080910402602001604051908101604052809291908181526020018280546112429061221c565b801561128f5780601f106112645761010080835404028352916020019161128f565b820191906000526020600020905b81548152906001019060200180831161127257829003601f168201915b505050505081526020017f000000000000000000000000000000000000000000000000000000000000000073ffffffffffffffffffffffffffffffffffffffff168152602001600860009054906101000a900460ff1615158152602001600860019054906101000a900460ff161515815250905090565b600860019054906101000a900460ff1681565b60055481565b7f000000000000000000000000000000000000000000000000000000000000000081565b600680546113509061221c565b80601f016020809104026020016040519081016040528092919081815260200182805461137c9061221c565b80156113c95780601f1061139e576101008083540402835291602001916113c9565b820191906000526020600020905b8154815290600101906020018083116113ac57829003601f168201915b505050505081565b600280546113de9061221c565b80601f016020809104026020016040519081016040528092919081815260200182805461140a9061221c565b80156114575780601f1061142c57610100808354040283529160200191611457565b820191906000526020600020905b81548152906001019060200180831161143a57829003601f168201915b505050505081565b61146761149d565b60026114796114746114de565b611509565b60000181905550565b600161149461148f6114de565b611509565b60000181905550565b6114a5611513565b156114dc576040517f3ee5aeb500000000000000000000000000000000000000000000000000000000815260040160405180910390fd5b565b60007f9b779b17422d0df92223018b32b4d1fa46e071723d6817e2486d003becc55f0060001b905090565b6000819050919050565b600060026115276115226114de565b611509565b6000015414905090565b604051806101800160405280600073ffffffffffffffffffffffffffffffffffffffff1681526020016000815260200160008152602001600081526020016000815260200160608152602001606081526020016060815260200160608152602001600073ffffffffffffffffffffffffffffffffffffffff1681526020016000151581526020016000151581525090565b60008115159050919050565b6115d7816115c2565b82525050565b60006020820190506115f260008301846115ce565b92915050565b6000819050919050565b61160b816115f8565b82525050565b60006020820190506116266000830184611602565b92915050565b600080fd5b600073ffffffffffffffffffffffffffffffffffffffff82169050919050565b600061165c82611631565b9050919050565b61166c81611651565b811461167757600080fd5b50565b60008135905061168981611663565b92915050565b6000602082840312156116a5576116a461162c565b5b60006116b38482850161167a565b91505092915050565b6116c5816115f8565b81146116d057600080fd5b50565b6000813590506116e2816116bc565b92915050565b6000602082840312156116fe576116fd61162c565b5b600061170c848285016116d3565b91505092915050565b600081519050919050565b600082825260208201905092915050565b60005b8381101561174f578082015181840152602081019050611734565b60008484015250505050565b6000601f19601f8301169050919050565b600061177782611715565b6117818185611720565b9350611791818560208601611731565b61179a8161175b565b840191505092915050565b600060208201905081810360008301526117bf818461176c565b905092915050565b60006117d282611631565b9050919050565b6117e2816117c7565b82525050565b60006020820190506117fd60008301846117d9565b92915050565b61180c81611651565b82525050565b61181b816115f8565b82525050565b600082825260208201905092915050565b600061183d82611715565b6118478185611821565b9350611857818560208601611731565b6118608161175b565b840191505092915050565b611874816115c2565b82525050565b6000610180830160008301516118936000860182611803565b5060208301516118a66020860182611812565b5060408301516118b96040860182611812565b5060608301516118cc6060860182611812565b5060808301516118df6080860182611812565b5060a083015184820360a08601526118f78282611832565b91505060c083015184820360c08601526119118282611832565b91505060e083015184820360e086015261192b8282611832565b9150506101008301518482036101008601526119478282611832565b91505061012083015161195e610120860182611803565b5061014083015161197361014086018261186b565b5061016083015161198861016086018261186b565b508091505092915050565b600060208201905081810360008301526119ad818461187a565b905092915050565b6119be81611651565b82525050565b60006020820190506119d960008301846119b5565b92915050565b7f43616d706169676e3a2046756e647320616c726561647920776974686472617760008201527f6e206f7220726566756e64656400000000000000000000000000000000000000602082015250565b6000611a3b602d83611720565b9150611a46826119df565b604082019050919050565b60006020820190508181036000830152611a6a81611a2e565b9050919050565b7f43616d706169676e3a204d7573742073656e6420455448000000000000000000600082015250565b6000611aa7601783611720565b9150611ab282611a71565b602082019050919050565b60006020820190508181036000830152611ad681611a9a565b9050919050565b7f43616d706169676e3a20446561646c696e652068617320706173736564000000600082015250565b6000611b13601d83611720565b9150611b1e82611add565b602082019050919050565b60006020820190508181036000830152611b4281611b06565b9050919050565b7f4e487b7100000000000000000000000000000000000000000000000000000000600052601160045260246000fd5b6000611b83826115f8565b9150611b8e836115f8565b9250828201905080821115611ba657611ba5611b49565b5b92915050565b6000604082019050611bc16000830185611602565b611bce6020830184611602565b9392505050565b7f43616d706169676e3a204d757374206265207468652063616d706169676e206f60008201527f776e657200000000000000000000000000000000000000000000000000000000602082015250565b6000611c31602483611720565b9150611c3c82611bd5565b604082019050919050565b60006020820190508181036000830152611c6081611c24565b9050919050565b7f43616d706169676e3a2046756e64696e6720676f616c206e6f74206d6574202860008201527f617661696c61626c652066756e64732900000000000000000000000000000000602082015250565b6000611cc3603083611720565b9150611cce82611c67565b604082019050919050565b60006020820190508181036000830152611cf281611cb6565b9050919050565b7f43616d706169676e3a20446561646c696e6520686173206e6f7420706173736560008201527f6420796574000000000000000000000000000000000000000000000000000000602082015250565b6000611d55602583611720565b9150611d6082611cf9565b604082019050919050565b60006020820190508181036000830152611d8481611d48565b9050919050565b6000611d96826115f8565b9150611da1836115f8565b9250828202611daf816115f8565b91508282048414831517611dc657611dc5611b49565b5b5092915050565b7f4e487b7100000000000000000000000000000000000000000000000000000000600052601260045260246000fd5b6000611e07826115f8565b9150611e12836115f8565b925082611e2257611e21611dcd565b5b828204905092915050565b6000611e38826115f8565b9150611e43836115f8565b9250828203905081811115611e5b57611e5a611b49565b5b92915050565b600081905092915050565b50565b6000611e7c600083611e61565b9150611e8782611e6c565b600082019050919050565b6000611e9d82611e6f565b9150819050919050565b7f43616d706169676e3a20466565207472616e73666572206661696c6564000000600082015250565b6000611edd601d83611720565b9150611ee882611ea7565b602082019050919050565b60006020820190508181036000830152611f0c81611ed0565b9050919050565b7f43616d706169676e3a204f776e6572207472616e73666572206661696c656400600082015250565b6000611f49601f83611720565b9150611f5482611f13565b602082019050919050565b60006020820190508181036000830152611f7881611f3c565b9050919050565b7f43616d706169676e3a20446561646c696e652068617320616c7265616479207060008201527f6173736564000000000000000000000000000000000000000000000000000000602082015250565b6000611fdb602583611720565b9150611fe682611f7f565b604082019050919050565b6000602082019050818103600083015261200a81611fce565b9050919050565b7f43616d706169676e3a20446561646c696e652063616e206f6e6c79206265206560008201527f7874656e646564206f6e63650000000000000000000000000000000000000000602082015250565b600061206d602c83611720565b915061207882612011565b604082019050919050565b6000602082019050818103600083015261209c81612060565b9050919050565b7f43616d706169676e3a204e657720646561646c696e65206d757374206265206960008201527f6e20746865206675747572650000000000000000000000000000000000000000602082015250565b60006120ff602c83611720565b915061210a826120a3565b604082019050919050565b6000602082019050818103600083015261212e816120f2565b9050919050565b7f43616d706169676e3a20457874656e73696f6e2063616e6e6f7420657863656560008201527f64203720646179732070617374207468652063757272656e7420646561646c6960208201527f6e65000000000000000000000000000000000000000000000000000000000000604082015250565b60006121b7604283611720565b91506121c282612135565b606082019050919050565b600060208201905081810360008301526121e6816121aa565b9050919050565b7f4e487b7100000000000000000000000000000000000000000000000000000000600052602260045260246000fd5b6000600282049050600182168061223457607f821691505b602082108103612247576122466121ed565b5b50919050565b7f43616d706169676e3a20446561646c696e6520686173206e6f7420706173736560008201527f6400000000000000000000000000000000000000000000000000000000000000602082015250565b60006122a9602183611720565b91506122b48261224d565b604082019050919050565b600060208201905081810360008301526122d88161229c565b9050919050565b7f43616d706169676e3a2046756e64696e6720676f616c20776173206d65742c2060008201527f6e6f20726566756e64206e656564656400000000000000000000000000000000602082015250565b600061233b603083611720565b9150612346826122df565b604082019050919050565b6000602082019050818103600083015261236a8161232e565b9050919050565b7f43616d706169676e3a204e6f20636f6e747269627574696f6e20666f756e642060008201527f6f7220616c726561647920726566756e64656400000000000000000000000000602082015250565b60006123cd603383611720565b91506123d882612371565b604082019050919050565b600060208201905081810360008301526123fc816123c0565b9050919050565b7f43616d706169676e3a20526566756e64207472616e73666572206661696c6564600082015250565b6000612439602083611720565b915061244482612403565b602082019050919050565b600060208201905081810360008301526124688161242c565b905091905056fea26469706673582212200ad899353aaa1f143268a6b4c6e0b1ee457deb4e8239f4f5a30fadc997fae99464736f6c63430008140033",
  "linkReferences": {},
  "deployedLinkReferences": {}
}