{
  "_format": "hh-sol-artifact-1",
  "contractName": "CampaignFactory",
  "sourceName": "contracts/Campaign.sol",
  "abi": [
    {
      "anonymous": false,
      "inputs": [
        {
          "indexed": false,
          "internalType": "string",
          "name": "title",
          "type": "string"
        },
        {
          "indexed": false,
          "internalType": "uint256",
          "name": "requiredAmount",
          "type": "uint256"
        },
        {
          "indexed": true,
          "internalType": "address",
          "name": "owner",
          "type": "address"
        },
        {
          "indexed": false,
          "internalType": "address",
          "name": "campaignAddress",
          "type": "address"
        },
        {
          "indexed": false,
          "internalType": "string",
          "name": "campaignImage",
          "type": "string"
        },
        {
          "indexed": true,
          "internalType": "uint256",
          "name": "timestamp",
          "type": "uint256"
        },
        {
          "indexed": true,
          "internalType": "string",
          "name": "category",
          "type": "string"
        }
      ],
      "name": "campaignCreated",
      "type": "event"
    },
    {
      "inputs": [
        {
          "internalType": "string",
          "name": "campaignTitle",
          "type": "string"
        },
        {
          "internalType": "uint256",
          "name": "campaignRequiredAmount",
          "type": "uint256"
        },
        {
          "internalType": "string",
          "name": "campaignImage",
          "type": "string"
        },
        {
          "internalType": "string",
          "name": "category",
          "type": "string"
        },
        {
          "internalType": "string",
          "name": "campaignStory",
          "type": "string"
        }
      ],
      "name": "createCampaign",
      "outputs": [],
      "stateMutability": "nonpayable",
      "type": "function"
    },
    {
      "inputs": [
        {
          "internalType": "uint256",
          "name": "",
          "type": "uint256"
        }
      ],
      "name": "deployedCampaigns",
      "outputs": [
        {
          "internalType": "address",
          "name": "",
          "type": "address"
        }
      ],
      "stateMutability": "view",
      "type": "function"
    }
  ],
  "bytecode": "0x608060405234801561001057600080fd5b506117b5806100206000396000f3fe60806040523480156200001157600080fd5b50600436106200003a5760003560e01c8063339d50a5146200003f578063c658857d1462000075575b600080fd5b6200005d60048036038101906200005791906200036e565b62000095565b6040516200006c9190620003e5565b60405180910390f35b6200009360048036038101906200008d919062000564565b620000d5565b005b60008181548110620000a657600080fd5b906000526020600020016000915054906101000a900473ffffffffffffffffffffffffffffffffffffffff1681565b60008551116200011c576040517f08c379a00000000000000000000000000000000000000000000000000000000081526004016200011390620006c9565b60405180910390fd5b6000841162000162576040517f08c379a000000000000000000000000000000000000000000000000000000000815260040162000159906200073b565b60405180910390fd5b6000835111620001a9576040517f08c379a0000000000000000000000000000000000000000000000000000000008152600401620001a090620007ad565b60405180910390fd5b6000815111620001f0576040517f08c379a0000000000000000000000000000000000000000000000000000000008152600401620001e7906200081f565b60405180910390fd5b6000858585843387604051620002069062000311565b6200021796959493929190620008d4565b604051809103906000f08015801562000234573d6000803e3d6000fd5b5090506000819080600181540180825580915050600190039060005260206000200160009091909190916101000a81548173ffffffffffffffffffffffffffffffffffffffff021916908373ffffffffffffffffffffffffffffffffffffffff16021790555082604051620002aa91906200099f565b6040518091039020423373ffffffffffffffffffffffffffffffffffffffff167ff932d905365211c7f19fda44bcb55b1adbe63365f7cdae1c35ddcb3e38ed1d468989868a604051620003019493929190620009b8565b60405180910390a4505050505050565b610d6c8062000a1483390190565b6000604051905090565b600080fd5b600080fd5b6000819050919050565b620003488162000333565b81146200035457600080fd5b50565b60008135905062000368816200033d565b92915050565b60006020828403121562000387576200038662000329565b5b6000620003978482850162000357565b91505092915050565b600073ffffffffffffffffffffffffffffffffffffffff82169050919050565b6000620003cd82620003a0565b9050919050565b620003df81620003c0565b82525050565b6000602082019050620003fc6000830184620003d4565b92915050565b600080fd5b600080fd5b6000601f19601f8301169050919050565b7f4e487b7100000000000000000000000000000000000000000000000000000000600052604160045260246000fd5b62000457826200040c565b810181811067ffffffffffffffff821117156200047957620004786200041d565b5b80604052505050565b60006200048e6200031f565b90506200049c82826200044c565b919050565b600067ffffffffffffffff821115620004bf57620004be6200041d565b5b620004ca826200040c565b9050602081019050919050565b82818337600083830152505050565b6000620004fd620004f784620004a1565b62000482565b9050828152602081018484840111156200051c576200051b62000407565b5b62000529848285620004d7565b509392505050565b600082601f83011262000549576200054862000402565b5b81356200055b848260208601620004e6565b91505092915050565b600080600080600060a0868803121562000583576200058262000329565b5b600086013567ffffffffffffffff811115620005a457620005a36200032e565b5b620005b28882890162000531565b9550506020620005c58882890162000357565b945050604086013567ffffffffffffffff811115620005e957620005e86200032e565b5b620005f78882890162000531565b935050606086013567ffffffffffffffff8111156200061b576200061a6200032e565b5b620006298882890162000531565b925050608086013567ffffffffffffffff8111156200064d576200064c6200032e565b5b6200065b8882890162000531565b9150509295509295909350565b600082825260208201905092915050565b7f5469746c6520656d707479000000000000000000000000000000000000000000600082015250565b6000620006b1600b8362000668565b9150620006be8262000679565b602082019050919050565b60006020820190508181036000830152620006e481620006a2565b9050919050565b7f416d6f756e74207a65726f000000000000000000000000000000000000000000600082015250565b600062000723600b8362000668565b91506200073082620006eb565b602082019050919050565b60006020820190508181036000830152620007568162000714565b9050919050565b7f496d61676520656d707479000000000000000000000000000000000000000000600082015250565b600062000795600b8362000668565b9150620007a2826200075d565b602082019050919050565b60006020820190508181036000830152620007c88162000786565b9050919050565b7f53746f727920656d707479000000000000000000000000000000000000000000600082015250565b600062000807600b8362000668565b91506200081482620007cf565b602082019050919050565b600060208201905081810360008301526200083a81620007f8565b9050919050565b600081519050919050565b60005b838110156200086c5780820151818401526020810190506200084f565b838111156200087c576000848401525b50505050565b60006200088f8262000841565b6200089b818562000668565b9350620008ad8185602086016200084c565b620008b8816200040c565b840191505092915050565b620008ce8162000333565b82525050565b600060c0820190508181036000830152620008f0818962000882565b9050620009016020830188620008c3565b818103604083015262000915818762000882565b905081810360608301526200092b818662000882565b90506200093c6080830185620003d4565b81810360a083015262000950818462000882565b9050979650505050505050565b600081905092915050565b6000620009758262000841565b6200098181856200095d565b9350620009938185602086016200084c565b80840191505092915050565b6000620009ad828462000968565b915081905092915050565b60006080820190508181036000830152620009d4818762000882565b9050620009e56020830186620008c3565b620009f46040830185620003d4565b818103606083015262000a08818462000882565b90509594505050505056fe60806040523480156200001157600080fd5b5060405162000d6c38038062000d6c8339818101604052810190620000379190620003dc565b85600090805190602001906200004f929190620000ef565b508460018190555083600290805190602001906200006f929190620000ef565b50826003908051906020019062000088929190620000ef565b5081600460006101000a81548173ffffffffffffffffffffffffffffffffffffffff021916908373ffffffffffffffffffffffffffffffffffffffff1602179055508060069080519060200190620000e2929190620000ef565b5050505050505062000559565b828054620000fd9062000523565b90600052602060002090601f0160209004810192826200012157600085556200016d565b82601f106200013c57805160ff19168380011785556200016d565b828001600101855582156200016d579182015b828111156200016c5782518255916020019190600101906200014f565b5b5090506200017c919062000180565b5090565b5b808211156200019b57600081600090555060010162000181565b5090565b6000604051905090565b600080fd5b600080fd5b600080fd5b600080fd5b6000601f19601f8301169050919050565b7f4e487b7100000000000000000000000000000000000000000000000000000000600052604160045260246000fd5b6200020882620001bd565b810181811067ffffffffffffffff821117156200022a5762000229620001ce565b5b80604052505050565b60006200023f6200019f565b90506200024d8282620001fd565b919050565b600067ffffffffffffffff82111562000270576200026f620001ce565b5b6200027b82620001bd565b9050602081019050919050565b60005b83811015620002a85780820151818401526020810190506200028b565b83811115620002b8576000848401525b50505050565b6000620002d5620002cf8462000252565b62000233565b905082815260208101848484011115620002f457620002f3620001b8565b5b6200030184828562000288565b509392505050565b600082601f830112620003215762000320620001b3565b5b815162000333848260208601620002be565b91505092915050565b6000819050919050565b62000351816200033c565b81146200035d57600080fd5b50565b600081519050620003718162000346565b92915050565b600073ffffffffffffffffffffffffffffffffffffffff82169050919050565b6000620003a48262000377565b9050919050565b620003b68162000397565b8114620003c257600080fd5b50565b600081519050620003d681620003ab565b92915050565b60008060008060008060c08789031215620003fc57620003fb620001a9565b5b600087015167ffffffffffffffff8111156200041d576200041c620001ae565b5b6200042b89828a0162000309565b96505060206200043e89828a0162000360565b955050604087015167ffffffffffffffff811115620004625762000461620001ae565b5b6200047089828a0162000309565b945050606087015167ffffffffffffffff811115620004945762000493620001ae565b5b620004a289828a0162000309565b9350506080620004b589828a01620003c5565b92505060a087015167ffffffffffffffff811115620004d957620004d8620001ae565b5b620004e789828a0162000309565b9150509295509295509295565b7f4e487b7100000000000000000000000000000000000000000000000000000000600052602260045260246000fd5b600060028204905060018216806200053c57607f821691505b60208210811415620005535762000552620004f4565b5b50919050565b61080380620005696000396000f3fe60806040526004361061007b5760003560e01c80639632e7201161004e5780639632e7201461012c578063ed88c68e14610157578063ef430aa614610161578063f3ccaac01461018c5761007b565b806346c922d11461008057806348b9ef40146100ab5780634a79d50c146100d65780638da5cb5b14610101575b600080fd5b34801561008c57600080fd5b506100956101b7565b6040516100a291906105c9565b60405180910390f35b3480156100b757600080fd5b506100c0610245565b6040516100cd9190610604565b60405180910390f35b3480156100e257600080fd5b506100eb61024b565b6040516100f891906105c9565b60405180910390f35b34801561010d57600080fd5b506101166102d9565b6040516101239190610660565b60405180910390f35b34801561013857600080fd5b506101416102ff565b60405161014e9190610604565b60405180910390f35b61015f610305565b005b34801561016d57600080fd5b50610176610414565b60405161018391906105c9565b60405180910390f35b34801561019857600080fd5b506101a16104a2565b6040516101ae91906105c9565b60405180910390f35b600380546101c4906106aa565b80601f01602080910402602001604051908101604052809291908181526020018280546101f0906106aa565b801561023d5780601f106102125761010080835404028352916020019161023d565b820191906000526020600020905b81548152906001019060200180831161022057829003601f168201915b505050505081565b60015481565b60008054610258906106aa565b80601f0160208091040260200160405190810160405280929190818152602001828054610284906106aa565b80156102d15780601f106102a6576101008083540402835291602001916102d1565b820191906000526020600020905b8154815290600101906020018083116102b457829003601f168201915b505050505081565b600460009054906101000a900473ffffffffffffffffffffffffffffffffffffffff1681565b60055481565b6005546001541161034b576040517f08c379a000000000000000000000000000000000000000000000000000000000815260040161034290610728565b60405180910390fd5b600460009054906101000a900473ffffffffffffffffffffffffffffffffffffffff1673ffffffffffffffffffffffffffffffffffffffff166108fc349081150290604051600060405180830381858888f193505050501580156103b3573d6000803e3d6000fd5b5034600560008282546103c69190610777565b9250508190555042343373ffffffffffffffffffffffffffffffffffffffff167fe6add99d06d9ad7fc456e746aa162eed6211c5002ef2dacdd67b8d2016822fba60405160405180910390a4565b60068054610421906106aa565b80601f016020809104026020016040519081016040528092919081815260200182805461044d906106aa565b801561049a5780601f1061046f5761010080835404028352916020019161049a565b820191906000526020600020905b81548152906001019060200180831161047d57829003601f168201915b505050505081565b600280546104af906106aa565b80601f01602080910402602001604051908101604052809291908181526020018280546104db906106aa565b80156105285780601f106104fd57610100808354040283529160200191610528565b820191906000526020600020905b81548152906001019060200180831161050b57829003601f168201915b505050505081565b600081519050919050565b600082825260208201905092915050565b60005b8381101561056a57808201518184015260208101905061054f565b83811115610579576000848401525b50505050565b6000601f19601f8301169050919050565b600061059b82610530565b6105a5818561053b565b93506105b581856020860161054c565b6105be8161057f565b840191505092915050565b600060208201905081810360008301526105e38184610590565b905092915050565b6000819050919050565b6105fe816105eb565b82525050565b600060208201905061061960008301846105f5565b92915050565b600073ffffffffffffffffffffffffffffffffffffffff82169050919050565b600061064a8261061f565b9050919050565b61065a8161063f565b82525050565b60006020820190506106756000830184610651565b92915050565b7f4e487b7100000000000000000000000000000000000000000000000000000000600052602260045260246000fd5b600060028204905060018216806106c257607f821691505b602082108114156106d6576106d561067b565b5b50919050565b7f526571756972656420416d6f756e742046756c66696c6c656400000000000000600082015250565b600061071260198361053b565b915061071d826106dc565b602082019050919050565b6000602082019050818103600083015261074181610705565b9050919050565b7f4e487b7100000000000000000000000000000000000000000000000000000000600052601160045260246000fd5b6000610782826105eb565b915061078d836105eb565b9250827fffffffffffffffffffffffffffffffffffffffffffffffffffffffffffffffff038211156107c2576107c1610748565b5b82820190509291505056fea26469706673582212205556d3f919245884461a718908f3e5aa708851e2154ad5e0eeff7c3cf4cb9d0e64736f6c634300080a0033a2646970667358221220625c21110e75461ee9fac14ad905e84183b800bcd80ecad52d9fa0e65f2af90a64736f6c634300080a0033",
  "linkReferences": {},
  "deployedLinkReferences": {}
}